{
  "abi": [
    {
      "inputs": [
        {
          "internalType": "address",
          "name": "_weth",
          "type": "address"
        },
        {
          "internalType": "address",
          "name": "_sushiRouter",
          "type": "address"
        },
        {
          "internalType": "address",
          "name": "_lendingRegistry",
          "type": "address"
        },
        {
          "internalType": "address",
          "name": "_pieRegistry",
          "type": "address"
        },
        {
          "internalType": "address",
          "name": "_bentoBox",
          "type": "address"
        },
        {
          "internalType": "address",
          "name": "_masterKontract",
          "type": "address"
        }
      ],
      "stateMutability": "nonpayable",
      "type": "constructor"
    },
    {
      "anonymous": false,
      "inputs": [
        {
          "indexed": true,
          "internalType": "address",
          "name": "_token",
          "type": "address"
        },
        {
          "indexed": true,
          "internalType": "address",
          "name": "_hop",
          "type": "address"
        }
      ],
      "name": "HopUpdated",
      "type": "event"
    },
    {
      "anonymous": false,
      "inputs": [
        {
          "indexed": true,
          "internalType": "address",
          "name": "previousOwner",
          "type": "address"
        },
        {
          "indexed": true,
          "internalType": "address",
          "name": "newOwner",
          "type": "address"
        }
      ],
      "name": "OwnershipTransferred",
      "type": "event"
    },
    {
      "stateMutability": "payable",
      "type": "fallback"
    },
    {
      "inputs": [
        {
          "internalType": "address",
          "name": "_inputToken",
          "type": "address"
        },
        {
          "internalType": "address",
          "name": "_outputToken",
          "type": "address"
        },
        {
          "internalType": "uint256",
          "name": "_maxInput",
          "type": "uint256"
        },
        {
          "internalType": "bytes",
          "name": "_data",
          "type": "bytes"
        }
      ],
      "name": "bake",
      "outputs": [
        {
          "internalType": "uint256",
          "name": "inputAmountUsed",
          "type": "uint256"
        },
        {
          "internalType": "uint256",
          "name": "outputAmount",
          "type": "uint256"
        }
      ],
      "stateMutability": "nonpayable",
      "type": "function"
    },
    {
      "inputs": [],
      "name": "baoAddress",
      "outputs": [
        {
          "internalType": "address",
          "name": "",
          "type": "address"
        }
      ],
      "stateMutability": "view",
      "type": "function"
    },
    {
      "inputs": [],
      "name": "baoFee",
      "outputs": [
        {
          "internalType": "uint256",
          "name": "",
          "type": "uint256"
        }
      ],
      "stateMutability": "view",
      "type": "function"
    },
    {
      "inputs": [
        {
          "internalType": "address",
          "name": "_pie",
          "type": "address"
        },
        {
          "internalType": "uint256",
          "name": "_poolAmount",
          "type": "uint256"
        }
      ],
      "name": "calcToPie",
      "outputs": [
        {
          "internalType": "uint256",
          "name": "",
          "type": "uint256"
        }
      ],
      "stateMutability": "nonpayable",
      "type": "function"
    },
    {
      "inputs": [
        {
          "internalType": "address",
          "name": "",
          "type": "address"
        }
      ],
      "name": "customHops",
      "outputs": [
        {
          "internalType": "address",
          "name": "hop",
          "type": "address"
        }
      ],
      "stateMutability": "view",
      "type": "function"
    },
    {
      "inputs": [
        {
          "internalType": "uint256",
          "name": "_outputAmount",
          "type": "uint256"
        }
      ],
      "name": "encodeData",
      "outputs": [
        {
          "internalType": "bytes",
          "name": "",
          "type": "bytes"
        }
      ],
      "stateMutability": "pure",
      "type": "function"
    },
    {
      "inputs": [],
      "name": "feeRecipient",
      "outputs": [
        {
          "internalType": "address",
          "name": "",
          "type": "address"
        }
      ],
      "stateMutability": "view",
      "type": "function"
    },
    {
      "inputs": [
        {
          "internalType": "address",
          "name": "_inputToken",
          "type": "address"
        },
        {
          "internalType": "address",
          "name": "_outputToken",
          "type": "address"
        },
        {
          "internalType": "uint256",
          "name": "_outputAmount",
          "type": "uint256"
        }
      ],
      "name": "getPrice",
      "outputs": [
        {
          "internalType": "uint256",
          "name": "",
          "type": "uint256"
        }
      ],
      "stateMutability": "nonpayable",
      "type": "function"
    },
    {
      "inputs": [],
      "name": "owner",
      "outputs": [
        {
          "internalType": "address",
          "name": "",
          "type": "address"
        }
      ],
      "stateMutability": "view",
      "type": "function"
    },
    {
      "inputs": [],
      "name": "renounceOwnership",
      "outputs": [],
      "stateMutability": "nonpayable",
      "type": "function"
    },
    {
      "inputs": [
        {
          "internalType": "address payable",
          "name": "_to",
          "type": "address"
        },
        {
          "internalType": "uint256",
          "name": "_amount",
          "type": "uint256"
        }
      ],
      "name": "saveEth",
      "outputs": [],
      "stateMutability": "nonpayable",
      "type": "function"
    },
    {
      "inputs": [
        {
          "internalType": "address",
          "name": "_token",
          "type": "address"
        },
        {
          "internalType": "address",
          "name": "_to",
          "type": "address"
        },
        {
          "internalType": "uint256",
          "name": "_amount",
          "type": "uint256"
        }
      ],
      "name": "saveToken",
      "outputs": [],
      "stateMutability": "nonpayable",
      "type": "function"
    },
    {
      "inputs": [
        {
          "internalType": "uint256",
          "name": "_newFee",
          "type": "uint256"
        }
      ],
      "name": "setBaoFee",
      "outputs": [],
      "stateMutability": "nonpayable",
      "type": "function"
    },
    {
      "inputs": [
        {
          "internalType": "address",
          "name": "_token",
          "type": "address"
        },
        {
          "internalType": "address",
          "name": "_hop",
          "type": "address"
        }
      ],
      "name": "setCustomHop",
      "outputs": [],
      "stateMutability": "nonpayable",
      "type": "function"
    },
    {
      "inputs": [
        {
          "internalType": "address",
          "name": "_newFeeRecipient",
          "type": "address"
        }
      ],
      "name": "setFeeRecipient",
      "outputs": [],
      "stateMutability": "nonpayable",
      "type": "function"
    },
    {
      "inputs": [
        {
          "internalType": "address",
          "name": "_newFeeToken",
          "type": "address"
        }
      ],
      "name": "setFeeToken",
      "outputs": [],
      "stateMutability": "nonpayable",
      "type": "function"
    },
    {
      "inputs": [
        {
          "internalType": "address",
          "name": "_pie",
          "type": "address"
        },
        {
          "internalType": "uint256",
          "name": "_outputAmount",
          "type": "uint256"
        }
      ],
      "name": "toPie",
      "outputs": [],
      "stateMutability": "payable",
      "type": "function"
    },
    {
      "inputs": [
        {
          "internalType": "address",
          "name": "newOwner",
          "type": "address"
        }
      ],
      "name": "transferOwnership",
      "outputs": [],
      "stateMutability": "nonpayable",
      "type": "function"
    }
  ],
  "bytecode": {
    "object": "0x6101006040526000600155600280546001600160a01b031990811673c81278a52ad0e1485b7c3cdf79079220ddd68b7d179091556003805490911661dead1790553480156200004d57600080fd5b5060405162003850380380620038508339810160408190526200007091620002a0565b8585858585856200008a620000846200022f565b62000233565b6001600160a01b038616620000bc5760405162461bcd60e51b8152600401620000b39062000427565b60405180910390fd5b6001600160a01b038516620000e55760405162461bcd60e51b8152600401620000b390620003fc565b6001600160a01b0384166200010e5760405162461bcd60e51b8152600401620000b3906200039a565b6001600160a01b038316620001375760405162461bcd60e51b8152600401620000b390620003d1565b6001600160601b0319606087811b821660805286811b821660a05285811b821660c05284901b1660e0526040516001600160a01b0383169060009063c0a47c9360e01b906200019690309086906001908690819081906024016200035c565b60408051601f198184030181529181526020820180516001600160e01b03166001600160e01b0319909416939093179092529051620001d6919062000320565b60006040518083038185875af1925050503d806000811462000215576040519150601f19603f3d011682016040523d82523d6000602084013e6200021a565b606091505b5050505050505050505050505050506200044a565b3390565b600080546001600160a01b038381166001600160a01b0319831681178455604051919092169283917f8be0079c531659141344cd1fd0a4f28419497f9722a3daafe3b4186f6b6457e09190a35050565b80516001600160a01b03811681146200029b57600080fd5b919050565b60008060008060008060c08789031215620002b9578182fd5b620002c48762000283565b9550620002d46020880162000283565b9450620002e46040880162000283565b9350620002f46060880162000283565b9250620003046080880162000283565b91506200031460a0880162000283565b90509295509295509295565b60008251815b8181101562000342576020818601810151858301520162000326565b81811115620003515782828501525b509190910192915050565b6001600160a01b039687168152949095166020850152911515604084015260ff9081166060840152908116608083015290911660a082015260c00190565b60208082526014908201527f4c454e44494e475f4d414e414745525f5a45524f000000000000000000000000604082015260600190565b6020808252601190820152705049455f52454749535452595f5a45524f60781b604082015260600190565b60208082526011908201527053555348495f524f555445525f5a45524f60781b604082015260600190565b602080825260099082015268574554485f5a45524f60b81b604082015260600190565b60805160601c60a05160601c60c05160601c60e05160601c6132c46200058c600039600081816111230152611c62015260008181610fa50152818161186b0152611d15015260008181610632015281816106f4015281816107b40152818161088001528181611aa80152818161219001528181612232015281816122bb0152818161281e015281816128c001526129490152600081816104ae01528181610605015281816106c70152818161077f01528181610c2101528181610c4b01528181610ccc01528181610d2b01528181610dcf015281816111bd015281816111fa0152818161123301528181611270015281816112b1015281816112e20152818161151b01528181611558015281816115f701528181611a0901528181611b8901528181611bc701528181611bf501528181611c1f015261240c01526132c46000f3fe6080604052600436106101095760003560e01c8063731dae7e11610095578063a9dd14d611610064578063a9dd14d6146102b0578063b056e833146102d0578063c1a5c7f1146102e5578063e74b981b14610305578063f2fde38b1461032557610109565b8063731dae7e1461023b5780638da5cb5b1461024e5780639afdb2c214610263578063a7521a891461028357610109565b8063412c9547116100dc578063412c9547146101a157806346904840146101cf57806349f2597d146101f15780634ec8f6ae14610206578063715018a61461022657610109565b80630dcc44d31461010b57806315cce2241461012b57806327726e7d1461014b578063335d15e31461016b575b005b34801561011757600080fd5b50610109610126366004612dd1565b610345565b34801561013757600080fd5b50610109610146366004612a8d565b6103a7565b34801561015757600080fd5b50610109610166366004612ac5565b610408565b34801561017757600080fd5b5061018b610186366004612c0a565b6104a7565b6040516101989190612eeb565b60405180910390f35b3480156101ad57600080fd5b506101c16101bc366004612b68565b6104db565b6040516101989291906130d1565b3480156101db57600080fd5b506101e4610b3f565b6040516101989190612e77565b3480156101fd57600080fd5b5061018b610b4e565b34801561021257600080fd5b50610109610221366004612af0565b610b54565b34801561023257600080fd5b50610109610bcf565b610109610249366004612c0a565b610c1a565b34801561025a57600080fd5b506101e4610e6b565b34801561026f57600080fd5b5061010961027e366004612b28565b610e7a565b34801561028f57600080fd5b506102a361029e366004612dd1565b610f3f565b6040516101989190612ef4565b3480156102bc57600080fd5b5061018b6102cb366004612b28565b610f68565b3480156102dc57600080fd5b506101e461132b565b3480156102f157600080fd5b506101e4610300366004612a8d565b61133a565b34801561031157600080fd5b50610109610320366004612a8d565b611355565b34801561033157600080fd5b50610109610340366004612a8d565b6113b6565b61034d611427565b6001600160a01b031661035e610e6b565b6001600160a01b03161461038d5760405162461bcd60e51b815260040161038490612f93565b60405180910390fd5b670de0b6b3a76400008111156103a257600080fd5b600155565b6103af611427565b6001600160a01b03166103c0610e6b565b6001600160a01b0316146103e65760405162461bcd60e51b815260040161038490612f93565b600280546001600160a01b0319166001600160a01b0392909216919091179055565b610410611427565b6001600160a01b0316610421610e6b565b6001600160a01b0316146104475760405162461bcd60e51b815260040161038490612f93565b816001600160a01b03168160405161045e90612e74565b60006040518083038185875af1925050503d806000811461049b576040519150601f19603f3d011682016040523d82523d6000602084013e6104a0565b606091505b5050505050565b60006104d47f00000000000000000000000000000000000000000000000000000000000000008484610f68565b9392505050565b60008085856104fd6104eb611427565b6001600160a01b03841690308961142b565b6000858060200190518101906105139190612db9565b905061052189898984611483565b93506000836001600160a01b03166370a08231306040518263ffffffff1660e01b81526004016105519190612e77565b60206040518083038186803b15801561056957600080fd5b505afa15801561057d573d6000803e3d6000fd5b505050506040513d601f19601f820116820180604052508101906105a19190612db9565b90506000670de0b6b3a7640001600154838b6105bd91906131ef565b6105c791906131d0565b6105d191906131b0565b90506000821180156105e257508015155b15610a0b5760025460405163095ea7b360e01b81526001600160a01b03918216917f0000000000000000000000000000000000000000000000000000000000000000169063095ea7b39061065d907f000000000000000000000000000000000000000000000000000000000000000090600090600401612eaf565b602060405180830381600087803b15801561067757600080fd5b505af115801561068b573d6000803e3d6000fd5b505050506040513d601f19601f820116820180604052508101906106af9190612d99565b5060405163095ea7b360e01b81526001600160a01b037f0000000000000000000000000000000000000000000000000000000000000000169063095ea7b390610720907f00000000000000000000000000000000000000000000000000000000000000009060001990600401612eaf565b602060405180830381600087803b15801561073a57600080fd5b505af115801561074e573d6000803e3d6000fd5b505050506040513d601f19601f820116820180604052508101906107729190612d99565b506002546000906107ae907f0000000000000000000000000000000000000000000000000000000000000000906001600160a01b031683611517565b905060007f00000000000000000000000000000000000000000000000000000000000000006001600160a01b031663d06ca61f85846040518363ffffffff1660e01b81526004016108009291906130b8565b60006040518083038186803b15801561081857600080fd5b505afa15801561082c573d6000803e3d6000fd5b505050506040513d6000823e601f3d908101601f191682016040526108549190810190612d66565b60018151811061087457634e487b7160e01b600052603260045260246000fd5b602002602001015190507f00000000000000000000000000000000000000000000000000000000000000006001600160a01b03166338ed1739858385304260016108be9190613198565b6040518663ffffffff1660e01b81526004016108de9594939291906130df565b600060405180830381600087803b1580156108f857600080fd5b505af115801561090c573d6000803e3d6000fd5b505050506040513d6000823e601f3d908101601f191682016040526109349190810190612d66565b506040516370a0823160e01b81526001600160a01b038416906342966c689082906370a0823190610969903090600401612e77565b60206040518083038186803b15801561098157600080fd5b505afa158015610995573d6000803e3d6000fd5b505050506040513d601f19601f820116820180604052508101906109b99190612db9565b6040518263ffffffff1660e01b81526004016109d59190612eeb565b600060405180830381600087803b1580156109ef57600080fd5b505af1158015610a03573d6000803e3d6000fd5b505050505050505b8115610b1557846001600160a01b031663a9059cbb610a28611427565b6040516370a0823160e01b81526001600160a01b038916906370a0823190610a54903090600401612e77565b60206040518083038186803b158015610a6c57600080fd5b505afa158015610a80573d6000803e3d6000fd5b505050506040513d601f19601f82011682018060405250810190610aa49190612db9565b6040518363ffffffff1660e01b8152600401610ac1929190612eaf565b602060405180830381600087803b158015610adb57600080fd5b505af1158015610aef573d6000803e3d6000fd5b505050506040513d601f19601f82011682018060405250810190610b139190612d99565b505b610b31610b20611427565b6001600160a01b03861690886117dd565b505050505094509492505050565b6003546001600160a01b031681565b60015481565b610b5c611427565b6001600160a01b0316610b6d610e6b565b6001600160a01b031614610b935760405162461bcd60e51b815260040161038490612f93565b60408051602080820183526001600160a01b039384168252938316600090815260049094529220915182546001600160a01b0319169116179055565b610bd7611427565b6001600160a01b0316610be8610e6b565b6001600160a01b031614610c0e5760405162461bcd60e51b815260040161038490612f93565b610c186000611801565b565b6000610c477f00000000000000000000000000000000000000000000000000000000000000008484610f68565b90507f00000000000000000000000000000000000000000000000000000000000000006001600160a01b031634604051610c8090612e74565b60006040518083038185875af1925050503d8060008114610cbd576040519150601f19603f3d011682016040523d82523d6000602084013e610cc2565b606091505b5050506000610cf37f0000000000000000000000000000000000000000000000000000000000000000853486611483565b9050610d11610d00611427565b6001600160a01b03861690836117dd565b6040516370a0823160e01b81526000906001600160a01b037f000000000000000000000000000000000000000000000000000000000000000016906370a0823190610d60903090600401612e77565b60206040518083038186803b158015610d7857600080fd5b505afa158015610d8c573d6000803e3d6000fd5b505050506040513d601f19601f82011682018060405250810190610db09190612db9565b905080156104a057604051632e1a7d4d60e01b81526001600160a01b037f00000000000000000000000000000000000000000000000000000000000000001690632e1a7d4d90610e04908490600401612eeb565b600060405180830381600087803b158015610e1e57600080fd5b505af1158015610e32573d6000803e3d6000fd5b505060405133925083156108fc02915083906000818181858888f19350505050158015610e63573d6000803e3d6000fd5b505050505050565b6000546001600160a01b031690565b610e82611427565b6001600160a01b0316610e93610e6b565b6001600160a01b031614610eb95760405162461bcd60e51b815260040161038490612f93565b60405163a9059cbb60e01b81526001600160a01b0384169063a9059cbb90610ee79085908590600401612eaf565b602060405180830381600087803b158015610f0157600080fd5b505af1158015610f15573d6000803e3d6000fd5b505050506040513d601f19601f82011682018060405250810190610f399190612d99565b50505050565b606081604051602001610f529190612eeb565b6040516020818303038152906040529050919050565b6000826001600160a01b0316846001600160a01b03161415610f8b5750806104d4565b604051632aabce9960e11b81526000906001600160a01b037f000000000000000000000000000000000000000000000000000000000000000016906355579d3290610fda908790600401612e77565b60206040518083038186803b158015610ff257600080fd5b505afa158015611006573d6000803e3d6000fd5b505050506040513d601f19601f8201168201806040525081019061102a9190612aa9565b90506001600160a01b0381161561110c57600061104685611851565b90506000816001600160a01b031663dc3b7c8b876040518263ffffffff1660e01b81526004016110769190612e77565b602060405180830381600087803b15801561109057600080fd5b505af11580156110a4573d6000803e3d6000fd5b505050506040513d601f19601f820116820180604052508101906110c89190612db9565b90506000670de0b6b3a76400006110df83886131d0565b6110e991906131b0565b6110f4906001613198565b9050611101888583610f68565b9450505050506104d4565b60405163e4ec552b60e01b81526001600160a01b037f0000000000000000000000000000000000000000000000000000000000000000169063e4ec552b90611158908790600401612e77565b60206040518083038186803b15801561117057600080fd5b505afa158015611184573d6000803e3d6000fd5b505050506040513d601f19601f820116820180604052508101906111a89190612d99565b156112315760006111b9858561196a565b90507f00000000000000000000000000000000000000000000000000000000000000006001600160a01b0316866001600160a01b0316146112285761121f867f000000000000000000000000000000000000000000000000000000000000000083610f68565b925050506104d4565b91506104d49050565b7f00000000000000000000000000000000000000000000000000000000000000006001600160a01b0316856001600160a01b0316141580156112a557507f00000000000000000000000000000000000000000000000000000000000000006001600160a01b0316846001600160a01b031614155b156113135760006112d77f00000000000000000000000000000000000000000000000000000000000000008686611a9b565b5090506000611307877f000000000000000000000000000000000000000000000000000000000000000084611a9b565b5093506104d492505050565b6000611320868686611a9b565b509695505050505050565b6002546001600160a01b031681565b6004602052600090815260409020546001600160a01b031681565b61135d611427565b6001600160a01b031661136e610e6b565b6001600160a01b0316146113945760405162461bcd60e51b815260040161038490612f93565b600380546001600160a01b0319166001600160a01b0392909216919091179055565b6113be611427565b6001600160a01b03166113cf610e6b565b6001600160a01b0316146113f55760405162461bcd60e51b815260040161038490612f93565b6001600160a01b03811661141b5760405162461bcd60e51b815260040161038490612f07565b61142481611801565b50565b3390565b610f39846323b872dd60e01b85858560405160240161144c93929190612e8b565b60408051601f198184030181529190526020810180516001600160e01b03166001600160e01b031990931692909217909152611ad9565b6000611490858584611b68565b6040516370a0823160e01b81526001600160a01b038516906370a08231906114bc903090600401612e77565b60206040518083038186803b1580156114d457600080fd5b505afa1580156114e8573d6000803e3d6000fd5b505050506040513d601f19601f8201168201806040525081019061150c9190612db9565b90505b949350505050565b60607f00000000000000000000000000000000000000000000000000000000000000006001600160a01b0316846001600160a01b03161415801561158d57507f00000000000000000000000000000000000000000000000000000000000000006001600160a01b0316836001600160a01b031614155b1561169e5760408051600380825260808201909252906020820160608036833701905050905083816000815181106115d557634e487b7160e01b600052603260045260246000fd5b60200260200101906001600160a01b031690816001600160a01b0316815250507f00000000000000000000000000000000000000000000000000000000000000008160018151811061163757634e487b7160e01b600052603260045260246000fd5b60200260200101906001600160a01b031690816001600160a01b031681525050828160028151811061167957634e487b7160e01b600052603260045260246000fd5b60200260200101906001600160a01b031690816001600160a01b0316815250506104d4565b6001600160a01b038216156117325760408051600380825260808201909252906020820160608036833701905050905083816000815181106116f057634e487b7160e01b600052603260045260246000fd5b60200260200101906001600160a01b031690816001600160a01b031681525050818160018151811061163757634e487b7160e01b600052603260045260246000fd5b6040805160028082526060820183529091602083019080368337019050509050838160008151811061177457634e487b7160e01b600052603260045260246000fd5b60200260200101906001600160a01b031690816001600160a01b03168152505082816001815181106117b657634e487b7160e01b600052603260045260246000fd5b60200260200101906001600160a01b031690816001600160a01b0316815250509392505050565b6117fc8363a9059cbb60e01b848460405160240161144c929190612eaf565b505050565b600080546001600160a01b038381166001600160a01b0319831681178455604051919092169283917f8be0079c531659141344cd1fd0a4f28419497f9722a3daafe3b4186f6b6457e09190a35050565b604051632df6e47f60e21b81526000906001600160a01b037f0000000000000000000000000000000000000000000000000000000000000000169063f8b7f42290829063b7db91fc906118a8908790600401612e77565b60206040518083038186803b1580156118c057600080fd5b505afa1580156118d4573d6000803e3d6000fd5b505050506040513d601f19601f820116820180604052508101906118f89190612db9565b6040518263ffffffff1660e01b81526004016119149190612eeb565b60206040518083038186803b15801561192c57600080fd5b505afa158015611940573d6000803e3d6000fd5b505050506040513d601f19601f820116820180604052508101906119649190612aa9565b92915050565b604051630dc6eaf760e21b81526000908390829081906001600160a01b0384169063371babdc9061199f908890600401612eeb565b60006040518083038186803b1580156119b757600080fd5b505afa1580156119cb573d6000803e3d6000fd5b505050506040513d6000823e601f3d908101601f191682016040526119f39190810190612d05565b915091506000805b835181101561132057611a7d7f0000000000000000000000000000000000000000000000000000000000000000858381518110611a4857634e487b7160e01b600052603260045260246000fd5b6020026020010151858481518110611a7057634e487b7160e01b600052603260045260246000fd5b6020026020010151610f68565b611a879083613198565b915080611a9381613232565b9150506119fb565b6000806000611acc8686867f0000000000000000000000000000000000000000000000000000000000000000611fff565b9660019650945050505050565b6000611b2e826040518060400160405280602081526020017f5361666545524332303a206c6f772d6c6576656c2063616c6c206661696c6564815250856001600160a01b03166120e69092919063ffffffff16565b8051909150156117fc5780806020019051810190611b4c9190612d99565b6117fc5760405162461bcd60e51b815260040161038490613049565b816001600160a01b0316836001600160a01b03161415611b87576117fc565b7f00000000000000000000000000000000000000000000000000000000000000006001600160a01b0316836001600160a01b031614611c4b576000611bed7f00000000000000000000000000000000000000000000000000000000000000008484610f68565b9050611c1a847f0000000000000000000000000000000000000000000000000000000000000000836120f5565b611c457f00000000000000000000000000000000000000000000000000000000000000008484611b68565b506117fc565b60405163e4ec552b60e01b81526001600160a01b037f0000000000000000000000000000000000000000000000000000000000000000169063e4ec552b90611c97908590600401612e77565b60206040518083038186803b158015611caf57600080fd5b505afa158015611cc3573d6000803e3d6000fd5b505050506040513d601f19601f82011682018060405250810190611ce79190612d99565b15611cfb57611cf68282612370565b6117fc565b604051632aabce9960e11b81526000906001600160a01b037f000000000000000000000000000000000000000000000000000000000000000016906355579d3290611d4a908690600401612e77565b60206040518083038186803b158015611d6257600080fd5b505afa158015611d76573d6000803e3d6000fd5b505050506040513d601f19601f82011682018060405250810190611d9a9190612aa9565b90506001600160a01b03811615611ff4576000611db684611851565b90506000816001600160a01b031663dc3b7c8b866040518263ffffffff1660e01b8152600401611de69190612e77565b602060405180830381600087803b158015611e0057600080fd5b505af1158015611e14573d6000803e3d6000fd5b505050506040513d601f19601f82011682018060405250810190611e389190612db9565b90506000670de0b6b3a7640000611e4f83876131d0565b611e5991906131b0565b611e64906001613198565b9050611e71878583611b68565b600080846001600160a01b0316637b1c44328785306040518463ffffffff1660e01b8152600401611ea493929190612ec8565b60006040518083038186803b158015611ebc57600080fd5b505afa158015611ed0573d6000803e3d6000fd5b505050506040513d6000823e601f3d908101601f19168201604052611ef89190810190612c1c565b9150915060005b8251811015611fe8576000838281518110611f2a57634e487b7160e01b600052603260045260246000fd5b60200260200101516001600160a01b03166000848481518110611f5d57634e487b7160e01b600052603260045260246000fd5b6020026020010151604051611f729190612e58565b60006040518083038185875af1925050503d8060008114611faf576040519150601f19603f3d011682016040523d82523d6000602084013e611fb4565b606091505b5050905080611fd55760405162461bcd60e51b815260040161038490613093565b5080611fe081613232565b915050611eff565b505050505050506117fc565b610f398484846120f5565b6000836001600160a01b0316856001600160a01b0316141561202257508161150f565b816001600160a01b0316631f00ca748461203e88886000611517565b6040518363ffffffff1660e01b815260040161205b9291906130b8565b60006040518083038186803b15801561207357600080fd5b505afa9250505080156120a857506040513d6000823e601f3d908101601f191682016040526120a59190810190612d66565b60015b6120b5575060001961150f565b806000815181106120d657634e487b7160e01b600052603260045260246000fd5b602002602001015191505061150f565b606061150f8484600085612729565b6001600160a01b0380831660008181526004602090815260409182902082519182019092529054831681528592909190831614156121345750506117fc565b80516001600160a01b03161561215b5761215485826000015186866127e9565b50506117fc565b600061216986866000611517565b60405163095ea7b360e01b81529091506001600160a01b0384169063095ea7b3906121bb907f000000000000000000000000000000000000000000000000000000000000000090600090600401612eaf565b602060405180830381600087803b1580156121d557600080fd5b505af11580156121e9573d6000803e3d6000fd5b505050506040513d601f19601f8201168201806040525081019061220d9190612d99565b5060405163095ea7b360e01b81526001600160a01b0384169063095ea7b39061225e907f00000000000000000000000000000000000000000000000000000000000000009060001990600401612eaf565b602060405180830381600087803b15801561227857600080fd5b505af115801561228c573d6000803e3d6000fd5b505050506040513d601f19601f820116820180604052508101906122b09190612d99565b506001600160a01b037f000000000000000000000000000000000000000000000000000000000000000016638803dbee8560001984306122f1426001613198565b6040518663ffffffff1660e01b81526004016123119594939291906130df565b600060405180830381600087803b15801561232b57600080fd5b505af115801561233f573d6000803e3d6000fd5b505050506040513d6000823e601f3d908101601f191682016040526123679190810190612d66565b50505050505050565b604051630dc6eaf760e21b8152829060009081906001600160a01b0384169063371babdc906123a3908790600401612eeb565b60006040518083038186803b1580156123bb57600080fd5b505afa1580156123cf573d6000803e3d6000fd5b505050506040513d6000823e601f3d908101601f191682016040526123f79190810190612d05565b9150915060005b82518110156126c35761248c7f000000000000000000000000000000000000000000000000000000000000000084838151811061244b57634e487b7160e01b600052603260045260246000fd5b602002602001015184848151811061247357634e487b7160e01b600052603260045260246000fd5b602002602001015160016124879190613198565b611b68565b60008382815181106124ae57634e487b7160e01b600052603260045260246000fd5b60200260200101519050806001600160a01b031663095ea7b38860006040518363ffffffff1660e01b81526004016124e7929190612eaf565b602060405180830381600087803b15801561250157600080fd5b505af1158015612515573d6000803e3d6000fd5b505050506040513d601f19601f820116820180604052508101906125399190612d99565b50806001600160a01b031663095ea7b38885858151811061256a57634e487b7160e01b600052603260045260246000fd5b6020026020010151600161257e9190613198565b6040518363ffffffff1660e01b815260040161259b929190612eaf565b602060405180830381600087803b1580156125b557600080fd5b505af11580156125c9573d6000803e3d6000fd5b505050506040513d601f19601f820116820180604052508101906125ed9190612d99565b506040516370a0823160e01b81526001600160a01b038216906370a082319061261a903090600401612e77565b60206040518083038186803b15801561263257600080fd5b505afa158015612646573d6000803e3d6000fd5b505050506040513d601f19601f8201168201806040525081019061266a9190612db9565b83838151811061268a57634e487b7160e01b600052603260045260246000fd5b602002602001015111156126b05760405162461bcd60e51b815260040161038490612fff565b50806126bb81613232565b9150506123fe565b506040516334e7a19f60e01b81526001600160a01b038416906334e7a19f906126f0908790600401612eeb565b600060405180830381600087803b15801561270a57600080fd5b505af115801561271e573d6000803e3d6000fd5b505050505050505050565b60608247101561274b5760405162461bcd60e51b815260040161038490612f4d565b6127548561297f565b6127705760405162461bcd60e51b815260040161038490612fc8565b600080866001600160a01b0316858760405161278c9190612e58565b60006040518083038185875af1925050503d80600081146127c9576040519150601f19603f3d011682016040523d82523d6000602084013e6127ce565b606091505b50915091506127de828286612985565b979650505050505050565b8360006127f7828587611517565b60405163095ea7b360e01b81529091506001600160a01b0383169063095ea7b390612849907f000000000000000000000000000000000000000000000000000000000000000090600090600401612eaf565b602060405180830381600087803b15801561286357600080fd5b505af1158015612877573d6000803e3d6000fd5b505050506040513d601f19601f8201168201806040525081019061289b9190612d99565b5060405163095ea7b360e01b81526001600160a01b0383169063095ea7b3906128ec907f00000000000000000000000000000000000000000000000000000000000000009060001990600401612eaf565b602060405180830381600087803b15801561290657600080fd5b505af115801561291a573d6000803e3d6000fd5b505050506040513d601f19601f8201168201806040525081019061293e9190612d99565b506001600160a01b037f000000000000000000000000000000000000000000000000000000000000000016638803dbee8460001984306122f1426001613198565b3b151590565b606083156129945750816104d4565b8251156129a45782518084602001fd5b8160405162461bcd60e51b81526004016103849190612ef4565b600082601f8301126129ce578081fd5b815160206129e36129de8361314c565b61311b565b82815281810190858301838502870184018810156129ff578586fd5b855b85811015612a26578151612a1481613279565b84529284019290840190600101612a01565b5090979650505050505050565b600082601f830112612a43578081fd5b81516020612a536129de8361314c565b8281528181019085830183850287018401881015612a6f578586fd5b855b85811015612a2657815184529284019290840190600101612a71565b600060208284031215612a9e578081fd5b81356104d481613279565b600060208284031215612aba578081fd5b81516104d481613279565b60008060408385031215612ad7578081fd5b8235612ae281613279565b946020939093013593505050565b60008060408385031215612b02578182fd5b8235612b0d81613279565b91506020830135612b1d81613279565b809150509250929050565b600080600060608486031215612b3c578081fd5b8335612b4781613279565b92506020840135612b5781613279565b929592945050506040919091013590565b60008060008060808587031215612b7d578081fd5b8435612b8881613279565b93506020850135612b9881613279565b925060408501359150606085013567ffffffffffffffff811115612bba578182fd5b8501601f81018713612bca578182fd5b8035612bd86129de82613170565b818152886020838501011115612bec578384fd5b81602084016020830137908101602001929092525092959194509250565b60008060408385031215612ad7578182fd5b6000806040808486031215612c2f578283fd5b835167ffffffffffffffff80821115612c46578485fd5b612c52878388016129be565b9450602091508186015181811115612c68578485fd5b86019050601f81018713612c7a578384fd5b8051612c886129de8261314c565b81815283810190838501875b84811015612cf457815186018c603f820112612cae57898afd5b87810151612cbe6129de82613170565b8181528e8b838501011115612cd1578b8cfd5b612ce0828b83018d8601613206565b865250509286019290860190600101612c94565b50979a909950975050505050505050565b60008060408385031215612d17578182fd5b825167ffffffffffffffff80821115612d2e578384fd5b612d3a868387016129be565b93506020850151915080821115612d4f578283fd5b50612d5c85828601612a33565b9150509250929050565b600060208284031215612d77578081fd5b815167ffffffffffffffff811115612d8d578182fd5b61150f84828501612a33565b600060208284031215612daa578081fd5b815180151581146104d4578182fd5b600060208284031215612dca578081fd5b5051919050565b600060208284031215612de2578081fd5b5035919050565b6000815180845260208085019450808401835b83811015612e215781516001600160a01b031687529582019590820190600101612dfc565b509495945050505050565b60008151808452612e44816020860160208601613206565b601f01601f19169290920160200192915050565b60008251612e6a818460208701613206565b9190910192915050565b90565b6001600160a01b0391909116815260200190565b6001600160a01b039384168152919092166020820152604081019190915260600190565b6001600160a01b03929092168252602082015260400190565b6001600160a01b0393841681526020810192909252909116604082015260600190565b90815260200190565b6000602082526104d46020830184612e2c565b60208082526026908201527f4f776e61626c653a206e6577206f776e657220697320746865207a65726f206160408201526564647265737360d01b606082015260800190565b60208082526026908201527f416464726573733a20696e73756666696369656e742062616c616e636520666f6040820152651c8818d85b1b60d21b606082015260800190565b6020808252818101527f4f776e61626c653a2063616c6c6572206973206e6f7420746865206f776e6572604082015260600190565b6020808252601d908201527f416464726573733a2063616c6c20746f206e6f6e2d636f6e7472616374000000604082015260600190565b6020808252602a908201527f57652061726520747279696e6720746f206465706f736974206d6f7265207468604082015269656e207765206861766560b01b606082015260800190565b6020808252602a908201527f5361666545524332303a204552433230206f7065726174696f6e20646964206e6040820152691bdd081cdd58d8d9595960b21b606082015260800190565b6020808252600b908201526a10d0531317d1905253115160aa1b604082015260600190565b60008382526040602083015261150f6040830184612de9565b918252602082015260400190565b600086825285602083015260a060408301526130fe60a0830186612de9565b6001600160a01b0394909416606083015250608001529392505050565b604051601f8201601f1916810167ffffffffffffffff8111828210171561314457613144613263565b604052919050565b600067ffffffffffffffff82111561316657613166613263565b5060209081020190565b600067ffffffffffffffff82111561318a5761318a613263565b50601f01601f191660200190565b600082198211156131ab576131ab61324d565b500190565b6000826131cb57634e487b7160e01b81526012600452602481fd5b500490565b60008160001904831182151516156131ea576131ea61324d565b500290565b6000828210156132015761320161324d565b500390565b60005b83811015613221578181015183820152602001613209565b83811115610f395750506000910152565b60006000198214156132465761324661324d565b5060010190565b634e487b7160e01b600052601160045260246000fd5b634e487b7160e01b600052604160045260246000fd5b6001600160a01b038116811461142457600080fdfea2646970667358221220adc9cb799435ef9b7a62993c23585a4b6fc8a71110e64dc2eb05663b2c2a6dff64736f6c63430008010033",
    "linkReferences": {}
  }
}