{
  "abi": [
    {
      "inputs": [
        {
          "internalType": "address",
          "name": "_weth",
          "type": "address"
        },
        {
          "internalType": "address",
          "name": "_lendingRegistry",
          "type": "address"
        }
      ],
      "stateMutability": "nonpayable",
      "type": "constructor"
    },
    {
      "anonymous": false,
      "inputs": [
        {
          "indexed": true,
          "internalType": "address",
          "name": "previousOwner",
          "type": "address"
        },
        {
          "indexed": true,
          "internalType": "address",
          "name": "newOwner",
          "type": "address"
        }
      ],
      "name": "OwnershipTransferred",
      "type": "event"
    },
    {
      "inputs": [
        {
          "internalType": "address",
          "name": "",
          "type": "address"
        }
      ],
      "name": "customHops",
      "outputs": [
        {
          "internalType": "address",
          "name": "",
          "type": "address"
        }
      ],
      "stateMutability": "view",
      "type": "function"
    },
    {
      "inputs": [
        {
          "internalType": "address",
          "name": "_assetIn",
          "type": "address"
        },
        {
          "internalType": "address",
          "name": "_assetOut",
          "type": "address"
        },
        {
          "internalType": "uint256",
          "name": "_amountIn",
          "type": "uint256"
        },
        {
          "internalType": "uint256",
          "name": "_ammIndex",
          "type": "uint256"
        }
      ],
      "name": "dexSwap",
      "outputs": [],
      "stateMutability": "nonpayable",
      "type": "function"
    },
    {
      "inputs": [
        {
          "internalType": "address",
          "name": "_assetIn",
          "type": "address"
        },
        {
          "internalType": "address",
          "name": "_assetOut",
          "type": "address"
        },
        {
          "internalType": "uint256",
          "name": "_amountIn",
          "type": "uint256"
        }
      ],
      "name": "getBestPrice",
      "outputs": [
        {
          "components": [
            {
              "internalType": "uint256",
              "name": "price",
              "type": "uint256"
            },
            {
              "internalType": "uint256",
              "name": "ammIndex",
              "type": "uint256"
            }
          ],
          "internalType": "struct NestRedeem.BestPrice",
          "name": "",
          "type": "tuple"
        }
      ],
      "stateMutability": "nonpayable",
      "type": "function"
    },
    {
      "inputs": [],
      "name": "owner",
      "outputs": [
        {
          "internalType": "address",
          "name": "",
          "type": "address"
        }
      ],
      "stateMutability": "view",
      "type": "function"
    },
    {
      "inputs": [
        {
          "internalType": "address",
          "name": "_nestAddress",
          "type": "address"
        },
        {
          "internalType": "uint256",
          "name": "_nestAmount",
          "type": "uint256"
        }
      ],
      "name": "redeemNestToWeth",
      "outputs": [],
      "stateMutability": "nonpayable",
      "type": "function"
    },
    {
      "inputs": [],
      "name": "renounceOwnership",
      "outputs": [],
      "stateMutability": "nonpayable",
      "type": "function"
    },
    {
      "inputs": [
        {
          "internalType": "address",
          "name": "_inputAsset",
          "type": "address"
        },
        {
          "internalType": "bytes32",
          "name": "_pool",
          "type": "bytes32"
        }
      ],
      "name": "setBalancerPoolMapping",
      "outputs": [],
      "stateMutability": "nonpayable",
      "type": "function"
    },
    {
      "inputs": [
        {
          "internalType": "address",
          "name": "_token",
          "type": "address"
        },
        {
          "internalType": "address",
          "name": "_hop",
          "type": "address"
        }
      ],
      "name": "setCustomHop",
      "outputs": [],
      "stateMutability": "nonpayable",
      "type": "function"
    },
    {
      "inputs": [
        {
          "internalType": "address",
          "name": "_outputAsset",
          "type": "address"
        },
        {
          "internalType": "uint16",
          "name": "_Fee",
          "type": "uint16"
        }
      ],
      "name": "setUniPoolMapping",
      "outputs": [],
      "stateMutability": "nonpayable",
      "type": "function"
    },
    {
      "inputs": [
        {
          "internalType": "address",
          "name": "newOwner",
          "type": "address"
        }
      ],
      "name": "transferOwnership",
      "outputs": [],
      "stateMutability": "nonpayable",
      "type": "function"
    }
  ],
  "bytecode": {
    "object": "0x60c0604052600480546001600160a01b031990811673ba12222222228d8ba445958a75a0704d566bf2c81790915560058054821673b27308f9f90d607463bb33ea1bebb41c27ce5ab617905560068054821673e592427a0aece92de3edee1f18e0157c05861564179055600780548216731b02da8cb0d097eb8d57a175b88c7d8b479975061790556008805490911673a5e0829caced8ffdd4de3c43696c57f7d7a678ff179055348015620000b357600080fd5b5060405162002a0338038062002a03833981016040819052620000d6916200017a565b620000ea620000e462000109565b6200010d565b6001600160601b0319606092831b8116608052911b1660a052620001b1565b3390565b600080546001600160a01b038381166001600160a01b0319831681178455604051919092169283917f8be0079c531659141344cd1fd0a4f28419497f9722a3daafe3b4186f6b6457e09190a35050565b80516001600160a01b03811681146200017557600080fd5b919050565b600080604083850312156200018d578182fd5b62000198836200015d565b9150620001a8602084016200015d565b90509250929050565b60805160601c60a05160601c6127f56200020e6000396000818161120b015281816113560152611c18015260008181610604015281816114d50152818161154b0152818161158c015281816115c201526115ef01526127f56000f3fe608060405234801561001057600080fd5b506004361061009e5760003560e01c8063c1a5c7f111610066578063c1a5c7f114610104578063d6d2aedb14610117578063f2fde38b14610137578063f4dbeeaf1461014a578063febf0e251461015d5761009e565b8063168a1a60146100a35780634ec8f6ae146100b857806365fbf798146100cb578063715018a6146100de5780638da5cb5b146100e6575b600080fd5b6100b66100b1366004611f59565b610170565b005b6100b66100c6366004611e71565b6101e7565b6100b66100d9366004611f2e565b610254565b6100b661070a565b6100ee610755565b6040516100fb91906122d0565b60405180910390f35b6100ee610112366004611e32565b610764565b61012a610125366004611ea9565b61077f565b6040516100fb919061252b565b6100b6610145366004611e32565b6109d2565b6100b6610158366004611ee9565b610a43565b6100b661016b366004611f2e565b611192565b6101786111ed565b6001600160a01b0316610189610755565b6001600160a01b0316146101b85760405162461bcd60e51b81526004016101af90612490565b60405180910390fd5b6001600160a01b03919091166000908152600260205260409020805461ffff191661ffff909216919091179055565b6101ef6111ed565b6001600160a01b0316610200610755565b6001600160a01b0316146102265760405162461bcd60e51b81526004016101af90612490565b6001600160a01b03918216600090815260036020526040902080546001600160a01b03191691909216179055565b60648110156102755760405162461bcd60e51b81526004016101af906124fc565b6040516370a0823160e01b8152829082906001600160a01b038316906370a08231906102a59033906004016122d0565b60206040518083038186803b1580156102bd57600080fd5b505afa1580156102d1573d6000803e3d6000fd5b505050506040513d601f19601f820116820180604052508101906102f591906121d6565b10156103135760405162461bcd60e51b81526004016101af906124c5565b6040516323b872dd60e01b81526001600160a01b038216906323b872dd9061034390339030908790600401612319565b602060405180830381600087803b15801561035d57600080fd5b505af1158015610371573d6000803e3d6000fd5b505050506040513d601f19601f8201168201806040525081019061039591906121b6565b506040516370a0823160e01b81526000906001600160a01b038316906370a08231906103c59030906004016122d0565b60206040518083038186803b1580156103dd57600080fd5b505afa1580156103f1573d6000803e3d6000fd5b505050506040513d601f19601f8201168201806040525081019061041591906121d6565b90506000826001600160a01b031663371babdc836040518263ffffffff1660e01b81526004016104459190612379565b60006040518083038186803b15801561045d57600080fd5b505afa158015610471573d6000803e3d6000fd5b505050506040513d6000823e601f3d908101601f19168201604052610499919081019061208a565b5060405163be1d24ad60e01b81529091506001600160a01b0384169063be1d24ad906104c9908590600401612379565b600060405180830381600087803b1580156104e357600080fd5b505af11580156104f7573d6000803e3d6000fd5b5050505060005b81518110156105ec576105da82828151811061052a57634e487b7160e01b600052603260045260246000fd5b602002602001015183838151811061055257634e487b7160e01b600052603260045260246000fd5b60200260200101516001600160a01b03166370a08231306040518263ffffffff1660e01b815260040161058591906122d0565b60206040518083038186803b15801561059d57600080fd5b505afa1580156105b1573d6000803e3d6000fd5b505050506040513d601f19601f820116820180604052508101906105d591906121d6565b6111f1565b806105e481612763565b9150506104fe565b506040516370a0823160e01b81526001600160a01b037f0000000000000000000000000000000000000000000000000000000000000000169063a9059cbb90339083906370a08231906106439030906004016122d0565b60206040518083038186803b15801561065b57600080fd5b505afa15801561066f573d6000803e3d6000fd5b505050506040513d601f19601f8201168201806040525081019061069391906121d6565b6040518363ffffffff1660e01b81526004016106b092919061233d565b602060405180830381600087803b1580156106ca57600080fd5b505af11580156106de573d6000803e3d6000fd5b505050506040513d601f19601f8201168201806040525081019061070291906121b6565b505050505050565b6107126111ed565b6001600160a01b0316610723610755565b6001600160a01b0316146107495760405162461bcd60e51b81526004016101af90612490565b6107536000611621565b565b6000546001600160a01b031690565b6003602052600090815260409020546001600160a01b031681565b610787611d17565b600080600080610795611d17565b6001600160a01b0388166000908152600260205260408120546107c1908b908b908b9061ffff16611671565b8184526020840181905260075491975091506001600160a01b031663d06ca61f896107ec8d8d611905565b6040518363ffffffff1660e01b8152600401610809929190612636565b60006040518083038186803b15801561082157600080fd5b505afa92505050801561085657506040513d6000823e601f3d908101601f19168201604052610853919081019061217b565b60015b6108635760009450610890565b8060018151811061088457634e487b7160e01b600052603260045260246000fd5b60200260200101519550505b81518511156108a457848252600260208301525b6008546001600160a01b031663d06ca61f896108c08d8d611905565b6040518363ffffffff1660e01b81526004016108dd929190612636565b60006040518083038186803b1580156108f557600080fd5b505afa92505050801561092a57506040513d6000823e601f3d908101601f19168201604052610927919081019061217b565b60015b6109375760009350610964565b8060018151811061095857634e487b7160e01b600052603260045260246000fd5b60200260200101519450505b815184111561097857838252600360208301525b6001600160a01b038a16600090815260016020526040902054156109ba576109a18a8a8a6119af565b925082826000015110156109ba57828252600460208301525b81516109c557600080fd5b5098975050505050505050565b6109da6111ed565b6001600160a01b03166109eb610755565b6001600160a01b031614610a115760405162461bcd60e51b81526004016101af90612490565b6001600160a01b038116610a375760405162461bcd60e51b81526004016101af9061244a565b610a4081611621565b50565b80610c3d5760408051610100810182526001600160a01b038087168252851660208201526101f49181019190915230606082015260009060808101610a894260016126e0565b815260208101859052600060408083018290526060909201819052600654915163095ea7b360e01b81529293506001600160a01b038881169363095ea7b393610ad8939216919060040161233d565b602060405180830381600087803b158015610af257600080fd5b505af1158015610b06573d6000803e3d6000fd5b505050506040513d601f19601f82011682018060405250810190610b2a91906121b6565b5060065460405163095ea7b360e01b81526001600160a01b038781169263095ea7b392610b6192909116906000199060040161233d565b602060405180830381600087803b158015610b7b57600080fd5b505af1158015610b8f573d6000803e3d6000fd5b505050506040513d601f19601f82011682018060405250810190610bb391906121b6565b5060065460405163414bf38960e01b81526001600160a01b039091169063414bf38990610be4908490600401612542565b602060405180830381600087803b158015610bfe57600080fd5b505af1158015610c12573d6000803e3d6000fd5b505050506040513d601f19601f82011682018060405250810190610c3691906121d6565b505061118c565b8060011415610c875760408051610100810182526001600160a01b03808716825285166020820152610bb89181019190915230606082015260009060808101610a894260016126e0565b8060021415610e475760075460405163095ea7b360e01b81526001600160a01b038681169263095ea7b392610cc5929091169060009060040161233d565b602060405180830381600087803b158015610cdf57600080fd5b505af1158015610cf3573d6000803e3d6000fd5b505050506040513d601f19601f82011682018060405250810190610d1791906121b6565b5060075460405163095ea7b360e01b81526001600160a01b038681169263095ea7b392610d4e92909116906000199060040161233d565b602060405180830381600087803b158015610d6857600080fd5b505af1158015610d7c573d6000803e3d6000fd5b505050506040513d601f19601f82011682018060405250810190610da091906121b6565b506007546001600160a01b03166338ed1739836000610dbf8888611905565b30610dcb4260016126e0565b6040518663ffffffff1660e01b8152600401610deb95949392919061264f565b600060405180830381600087803b158015610e0557600080fd5b505af1158015610e19573d6000803e3d6000fd5b505050506040513d6000823e601f3d908101601f19168201604052610e41919081019061217b565b5061118c565b8060031415610f7f5760085460405163095ea7b360e01b81526001600160a01b038681169263095ea7b392610e85929091169060009060040161233d565b602060405180830381600087803b158015610e9f57600080fd5b505af1158015610eb3573d6000803e3d6000fd5b505050506040513d601f19601f82011682018060405250810190610ed791906121b6565b5060085460405163095ea7b360e01b81526001600160a01b038681169263095ea7b392610f0e92909116906000199060040161233d565b602060405180830381600087803b158015610f2857600080fd5b505af1158015610f3c573d6000803e3d6000fd5b505050506040513d601f19601f82011682018060405250810190610f6091906121b6565b506008546001600160a01b03166338ed1739836000610dbf8888611905565b6040805160c0810182526001600160a01b0386811660008181526001602090815285822054855280850182905284860183905288841660608087019190915260808087018a90528751808401895284815260a0880152875190810188523080825292810184905280880192909252810182905260048054965163095ea7b360e01b81529296919463095ea7b39361101c939091169188910161233d565b602060405180830381600087803b15801561103657600080fd5b505af115801561104a573d6000803e3d6000fd5b505050506040513d601f19601f8201168201806040525081019061106e91906121b6565b506004805460405163095ea7b360e01b81526001600160a01b03808b169363095ea7b3936110a393921691600019910161233d565b602060405180830381600087803b1580156110bd57600080fd5b505af11580156110d1573d6000803e3d6000fd5b505050506040513d601f19601f820116820180604052508101906110f591906121b6565b506004546001600160a01b03166352bbbe29838360006111164260016126e0565b6040518563ffffffff1660e01b815260040161113594939291906125ab565b602060405180830381600087803b15801561114f57600080fd5b505af1158015611163573d6000803e3d6000fd5b505050506040513d601f19601f8201168201806040525081019061118791906121d6565b505050505b50505050565b61119a6111ed565b6001600160a01b03166111ab610755565b6001600160a01b0316146111d15760405162461bcd60e51b81526004016101af90612490565b6001600160a01b03909116600090815260016020526040902055565b3390565b604051632aabce9960e11b81526000906001600160a01b037f000000000000000000000000000000000000000000000000000000000000000016906355579d32906112409086906004016122d0565b60206040518083038186803b15801561125857600080fd5b505afa15801561126c573d6000803e3d6000fd5b505050506040513d601f19601f820116820180604052508101906112909190611e55565b90506001600160a01b038116156114d35760006112ac84611bfe565b90506000816001600160a01b031663dc3b7c8b866040518263ffffffff1660e01b81526004016112dc91906122d0565b602060405180830381600087803b1580156112f657600080fd5b505af115801561130a573d6000803e3d6000fd5b505050506040513d601f19601f8201168201806040525081019061132e91906121d6565b90506000670de0b6b3a76400006113458387612718565b61134f91906126f8565b90506000807f00000000000000000000000000000000000000000000000000000000000000006001600160a01b03166358d28ef78989306040518463ffffffff1660e01b81526004016113a493929190612356565b60006040518083038186803b1580156113bc57600080fd5b505afa1580156113d0573d6000803e3d6000fd5b505050506040513d6000823e601f3d908101601f191682016040526113f89190810190611f8c565b9150915060005b82518110156114c65782818151811061142857634e487b7160e01b600052603260045260246000fd5b60200260200101516001600160a01b031682828151811061145957634e487b7160e01b600052603260045260246000fd5b602002602001015160405161146e91906122b4565b6000604051808303816000865af19150503d80600081146114ab576040519150601f19603f3d011682016040523d82523d6000602084013e6114b0565b606091505b50505080806114be90612763565b9150506113ff565b5082965085975050505050505b7f00000000000000000000000000000000000000000000000000000000000000006001600160a01b0316836001600160a01b03161415611513575061161d565b6001600160a01b038084166000908152600360205260409020541680156115ba57600061154185838661077f565b90506000611574837f0000000000000000000000000000000000000000000000000000000000000000846000015161077f565b90506115868684878560200151610a43565b610c36837f000000000000000000000000000000000000000000000000000000000000000084600001518460200151610a43565b60006115e7857f00000000000000000000000000000000000000000000000000000000000000008661077f565b9050611619857f0000000000000000000000000000000000000000000000000000000000000000868460200151610a43565b5050505b5050565b600080546001600160a01b038381166001600160a01b0319831681178455604051919092169283917f8be0079c531659141344cd1fd0a4f28419497f9722a3daafe3b4186f6b6457e09190a35050565b6000808261ffff166101f4141561171c5760055460405163f7729d4360e01b81526001600160a01b039091169063f7729d43906116bd90899089906101f4908a906000906004016122e4565b602060405180830381600087803b1580156116d757600080fd5b505af1925050508015611707575060408051601f3d908101601f19168201909252611704918101906121d6565b60015b6117145760009150611717565b91505b6118fc565b8261ffff16610bb814156117c75760055460405163f7729d4360e01b81526001600160a01b039091169063f7729d43906117659089908990610bb8908a906000906004016122e4565b602060405180830381600087803b15801561177f57600080fd5b505af19250505080156117af575060408051601f3d908101601f191682019092526117ac918101906121d6565b60015b6117bc57600091506117bf565b91505b5060016118fc565b60055460405163f7729d4360e01b81526001600160a01b039091169063f7729d439061180290899089906101f4908a906000906004016122e4565b602060405180830381600087803b15801561181c57600080fd5b505af192505050801561184c575060408051601f3d908101601f19168201909252611849918101906121d6565b60015b611859576000915061185c565b91505b60055460405163f7729d4360e01b81526001600160a01b039091169063f7729d43906118979089908990610bb8908a906000906004016122e4565b602060405180830381600087803b1580156118b157600080fd5b505af19250505080156118e1575060408051601f3d908101601f191682019092526118de918101906121d6565b60015b6118ea576118fc565b808311156118fa57600191508092505b505b94509492505050565b6040805160028082526060808301845292602083019080368337019050509050828160008151811061194757634e487b7160e01b600052603260045260246000fd5b60200260200101906001600160a01b031690816001600160a01b031681525050818160018151811061198957634e487b7160e01b600052603260045260246000fd5b60200260200101906001600160a01b031690816001600160a01b03168152505092915050565b60408051600280825260608201835260009283928392909160208301908036833701905050905085816000815181106119f857634e487b7160e01b600052603260045260246000fd5b60200260200101906001600160a01b031690816001600160a01b0316815250508481600181518110611a3a57634e487b7160e01b600052603260045260246000fd5b6001600160a01b039290921660209283029190910190910152604080516001808252818301909252600091816020015b611a72611d31565b815260200190600190039081611a6a5790505090506040518060a00160405280600160008a6001600160a01b03166001600160a01b0316815260200190815260200160002054815260200160008152602001600181526020018681526020016040518060200160405280600081525081525081600081518110611b0557634e487b7160e01b600052603260045260246000fd5b60209081029190910181019190915260408051608081018252338082526000938201849052818301526060810192909252600480549151637c26833760e11b81526001600160a01b039092169163f84d066e91611b6a91889187918991889101612382565b600060405180830381600087803b158015611b8457600080fd5b505af1925050508015611bb957506040513d6000823e601f3d908101601f19168201604052611bb691908101906120eb565b60015b611bc65760009450611bf3565b80600181518110611be757634e487b7160e01b600052603260045260246000fd5b60200260200101519550505b505050509392505050565b604051632df6e47f60e21b81526000906001600160a01b037f0000000000000000000000000000000000000000000000000000000000000000169063f8b7f42290829063b7db91fc90611c559087906004016122d0565b60206040518083038186803b158015611c6d57600080fd5b505afa158015611c81573d6000803e3d6000fd5b505050506040513d601f19601f82011682018060405250810190611ca591906121d6565b6040518263ffffffff1660e01b8152600401611cc19190612379565b60206040518083038186803b158015611cd957600080fd5b505afa158015611ced573d6000803e3d6000fd5b505050506040513d601f19601f82011682018060405250810190611d119190611e55565b92915050565b604051806040016040528060008152602001600081525090565b6040518060a0016040528060008019168152602001600081526020016000815260200160008152602001606081525090565b600082601f830112611d73578081fd5b81516020611d88611d83836126bc565b61268b565b8281528181019085830183850287018401881015611da4578586fd5b855b85811015611dcb578151611db9816127aa565b84529284019290840190600101611da6565b5090979650505050505050565b600082601f830112611de8578081fd5b81516020611df8611d83836126bc565b8281528181019085830183850287018401881015611e14578586fd5b855b85811015611dcb57815184529284019290840190600101611e16565b600060208284031215611e43578081fd5b8135611e4e816127aa565b9392505050565b600060208284031215611e66578081fd5b8151611e4e816127aa565b60008060408385031215611e83578081fd5b8235611e8e816127aa565b91506020830135611e9e816127aa565b809150509250929050565b600080600060608486031215611ebd578081fd5b8335611ec8816127aa565b92506020840135611ed8816127aa565b929592945050506040919091013590565b60008060008060808587031215611efe578081fd5b8435611f09816127aa565b93506020850135611f19816127aa565b93969395505050506040820135916060013590565b60008060408385031215611f40578182fd5b8235611f4b816127aa565b946020939093013593505050565b60008060408385031215611f6b578182fd5b8235611f76816127aa565b9150602083013561ffff81168114611e9e578182fd5b6000806040808486031215611f9f578283fd5b835167ffffffffffffffff80821115611fb6578485fd5b611fc287838801611d63565b9450602091508186015181811115611fd8578485fd5b8601601f81018813611fe8578485fd5b8051611ff6611d83826126bc565b81815284810190838601885b8481101561207857815186018d603f82011261201c578a8bfd5b888101518881111561203057612030612794565b612042601f8201601f19168b0161268b565b8181528f8c838501011115612055578c8dfd5b612064828c83018e8601612737565b865250509287019290870190600101612002565b50989b909a5098505050505050505050565b6000806040838503121561209c578182fd5b825167ffffffffffffffff808211156120b3578384fd5b6120bf86838701611d63565b935060208501519150808211156120d4578283fd5b506120e185828601611dd8565b9150509250929050565b600060208083850312156120fd578182fd5b825167ffffffffffffffff811115612113578283fd5b8301601f81018513612123578283fd5b8051612131611d83826126bc565b818152838101908385018584028501860189101561214d578687fd5b8694505b8385101561216f578051835260019490940193918501918501612151565b50979650505050505050565b60006020828403121561218c578081fd5b815167ffffffffffffffff8111156121a2578182fd5b6121ae84828501611dd8565b949350505050565b6000602082840312156121c7578081fd5b81518015158114611e4e578182fd5b6000602082840312156121e7578081fd5b5051919050565b6000815180845260208085019450808401835b838110156122265781516001600160a01b031687529582019590820190600101612201565b509495945050505050565b60008151808452612249816020860160208601612737565b601f01601f19169290920160200192915050565b6002811061227b57634e487b7160e01b600052602160045260246000fd5b9052565b80516001600160a01b039081168352602080830151151590840152604080830151909116908301526060908101511515910152565b600082516122c6818460208701612737565b9190910192915050565b6001600160a01b0391909116815260200190565b6001600160a01b039586168152938516602085015262ffffff9290921660408401526060830152909116608082015260a00190565b6001600160a01b039384168152919092166020820152604081019190915260600190565b6001600160a01b03929092168252602082015260400190565b6001600160a01b0393841681526020810192909252909116604082015260600190565b90815260200190565b600060e08201612392838861225d565b602060e08185015281875180845261010093508386019150838382028701019350828901855b8281101561241a5787860360ff190184528151805187528581015186880152604080820151908801526060808201519088015260809081015160a09188018290529061240681890183612231565b9750505092840192908401906001016123b8565b5050505050828103604084015261243181866121ee565b915050612441606083018461227f565b95945050505050565b60208082526026908201527f4f776e61626c653a206e6577206f776e657220697320746865207a65726f206160408201526564647265737360d01b606082015260800190565b6020808252818101527f4f776e61626c653a2063616c6c6572206973206e6f7420746865206f776e6572604082015260600190565b60208082526019908201527f496e73756666696369656e74206e6573742062616c616e636500000000000000604082015260600190565b6020808252601590820152744d696e206e65737420616d6f756e743a20302e303160581b604082015260600190565b815181526020918201519181019190915260400190565b81516001600160a01b03908116825260208084015182169083015260408084015162ffffff16908301526060808401518216908301526080808401519083015260a0838101519083015260c0808401519083015260e09283015116918101919091526101000190565b600060e08252855160e083015260208601516125cb61010084018261225d565b5060408601516001600160a01b03908116610120840152606087015116610140830152608086015161016083015260a086015160c06101808401526126146101a0840182612231565b915050612624602083018661227f565b60a082019390935260c0015292915050565b6000838252604060208301526121ae60408301846121ee565b600086825285602083015260a0604083015261266e60a08301866121ee565b6001600160a01b0394909416606083015250608001529392505050565b604051601f8201601f1916810167ffffffffffffffff811182821017156126b4576126b4612794565b604052919050565b600067ffffffffffffffff8211156126d6576126d6612794565b5060209081020190565b600082198211156126f3576126f361277e565b500190565b60008261271357634e487b7160e01b81526012600452602481fd5b500490565b60008160001904831182151516156127325761273261277e565b500290565b60005b8381101561275257818101518382015260200161273a565b8381111561118c5750506000910152565b60006000198214156127775761277761277e565b5060010190565b634e487b7160e01b600052601160045260246000fd5b634e487b7160e01b600052604160045260246000fd5b6001600160a01b0381168114610a4057600080fdfea2646970667358221220050af1663652837ae1ba72b763c68f4860e700ce797726369698413dfe1aab3864736f6c63430008010033",
    "linkReferences": {}
  }
}