{
  "abi": [
    {
      "inputs": [
        {
          "internalType": "address",
          "name": "_weth",
          "type": "address"
        },
        {
          "internalType": "address",
          "name": "_lendingRegistry",
          "type": "address"
        },
        {
          "internalType": "address",
          "name": "_pieRegistry",
          "type": "address"
        },
        {
          "internalType": "address",
          "name": "_bentoBox",
          "type": "address"
        },
        {
          "internalType": "address",
          "name": "_masterContract",
          "type": "address"
        }
      ],
      "stateMutability": "nonpayable",
      "type": "constructor"
    },
    {
      "anonymous": false,
      "inputs": [
        {
          "indexed": true,
          "internalType": "address",
          "name": "_token",
          "type": "address"
        },
        {
          "indexed": true,
          "internalType": "address",
          "name": "_hop",
          "type": "address"
        }
      ],
      "name": "HopUpdated",
      "type": "event"
    },
    {
      "anonymous": false,
      "inputs": [
        {
          "indexed": true,
          "internalType": "address",
          "name": "previousOwner",
          "type": "address"
        },
        {
          "indexed": true,
          "internalType": "address",
          "name": "newOwner",
          "type": "address"
        }
      ],
      "name": "OwnershipTransferred",
      "type": "event"
    },
    {
      "inputs": [
        {
          "internalType": "address",
          "name": "_inputToken",
          "type": "address"
        },
        {
          "internalType": "address",
          "name": "_outputToken",
          "type": "address"
        },
        {
          "internalType": "uint256",
          "name": "_maxInput",
          "type": "uint256"
        },
        {
          "internalType": "uint256",
          "name": "_mintAmount",
          "type": "uint256"
        }
      ],
      "name": "bake",
      "outputs": [
        {
          "internalType": "uint256",
          "name": "inputAmountUsed",
          "type": "uint256"
        },
        {
          "internalType": "uint256",
          "name": "outputAmount",
          "type": "uint256"
        }
      ],
      "stateMutability": "nonpayable",
      "type": "function"
    },
    {
      "inputs": [
        {
          "internalType": "address",
          "name": "",
          "type": "address"
        }
      ],
      "name": "customHops",
      "outputs": [
        {
          "internalType": "address",
          "name": "",
          "type": "address"
        }
      ],
      "stateMutability": "view",
      "type": "function"
    },
    {
      "inputs": [
        {
          "internalType": "address",
          "name": "_assetIn",
          "type": "address"
        },
        {
          "internalType": "address",
          "name": "_assetOut",
          "type": "address"
        },
        {
          "internalType": "uint256",
          "name": "_amountOut",
          "type": "uint256"
        },
        {
          "internalType": "uint256",
          "name": "_ammIndex",
          "type": "uint256"
        }
      ],
      "name": "dexSwap",
      "outputs": [],
      "stateMutability": "nonpayable",
      "type": "function"
    },
    {
      "inputs": [
        {
          "internalType": "address",
          "name": "_assetIn",
          "type": "address"
        },
        {
          "internalType": "address",
          "name": "_assetOut",
          "type": "address"
        },
        {
          "internalType": "uint256",
          "name": "_amountOut",
          "type": "uint256"
        }
      ],
      "name": "getBestPrice",
      "outputs": [
        {
          "components": [
            {
              "internalType": "uint256",
              "name": "price",
              "type": "uint256"
            },
            {
              "internalType": "uint256",
              "name": "ammIndex",
              "type": "uint256"
            }
          ],
          "internalType": "struct RecipeV3.BestPrice",
          "name": "",
          "type": "tuple"
        }
      ],
      "stateMutability": "nonpayable",
      "type": "function"
    },
    {
      "inputs": [
        {
          "internalType": "address",
          "name": "_inputToken",
          "type": "address"
        },
        {
          "internalType": "address",
          "name": "_outputToken",
          "type": "address"
        },
        {
          "internalType": "uint256",
          "name": "_outputAmount",
          "type": "uint256"
        }
      ],
      "name": "getPrice",
      "outputs": [
        {
          "internalType": "uint256",
          "name": "",
          "type": "uint256"
        }
      ],
      "stateMutability": "nonpayable",
      "type": "function"
    },
    {
      "inputs": [],
      "name": "owner",
      "outputs": [
        {
          "internalType": "address",
          "name": "",
          "type": "address"
        }
      ],
      "stateMutability": "view",
      "type": "function"
    },
    {
      "inputs": [],
      "name": "renounceOwnership",
      "outputs": [],
      "stateMutability": "nonpayable",
      "type": "function"
    },
    {
      "inputs": [
        {
          "internalType": "address payable",
          "name": "_to",
          "type": "address"
        },
        {
          "internalType": "uint256",
          "name": "_amount",
          "type": "uint256"
        }
      ],
      "name": "saveEth",
      "outputs": [],
      "stateMutability": "nonpayable",
      "type": "function"
    },
    {
      "inputs": [
        {
          "internalType": "address",
          "name": "_token",
          "type": "address"
        },
        {
          "internalType": "address",
          "name": "_to",
          "type": "address"
        },
        {
          "internalType": "uint256",
          "name": "_amount",
          "type": "uint256"
        }
      ],
      "name": "saveToken",
      "outputs": [],
      "stateMutability": "nonpayable",
      "type": "function"
    },
    {
      "inputs": [
        {
          "internalType": "address",
          "name": "_inputAsset",
          "type": "address"
        },
        {
          "internalType": "bytes32",
          "name": "_pool",
          "type": "bytes32"
        }
      ],
      "name": "setBalancerPoolMapping",
      "outputs": [],
      "stateMutability": "nonpayable",
      "type": "function"
    },
    {
      "inputs": [
        {
          "internalType": "address",
          "name": "_token",
          "type": "address"
        },
        {
          "internalType": "address",
          "name": "_hop",
          "type": "address"
        }
      ],
      "name": "setCustomHop",
      "outputs": [],
      "stateMutability": "nonpayable",
      "type": "function"
    },
    {
      "inputs": [
        {
          "internalType": "address",
          "name": "_outputAsset",
          "type": "address"
        },
        {
          "internalType": "uint16",
          "name": "_Fee",
          "type": "uint16"
        }
      ],
      "name": "setUniPoolMapping",
      "outputs": [],
      "stateMutability": "nonpayable",
      "type": "function"
    },
    {
      "inputs": [
        {
          "internalType": "address",
          "name": "newOwner",
          "type": "address"
        }
      ],
      "name": "transferOwnership",
      "outputs": [],
      "stateMutability": "nonpayable",
      "type": "function"
    }
  ],
  "bytecode": {
    "object": "0x60e0604052600480546001600160a01b031990811673ba12222222228d8ba445958a75a0704d566bf2c81790915560058054821673b27308f9f90d607463bb33ea1bebb41c27ce5ab617905560068054821673e592427a0aece92de3edee1f18e0157c0586156417905560078054909116731b02da8cb0d097eb8d57a175b88c7d8b479975061790553480156200009557600080fd5b50604051620037b9380380620037b9833981016040819052620000b891620002aa565b620000cc620000c662000239565b6200023d565b6001600160a01b038516620000fe5760405162461bcd60e51b8152600401620000f590620003f5565b60405180910390fd5b6001600160a01b038416620001275760405162461bcd60e51b8152600401620000f59062000393565b6001600160a01b038316620001505760405162461bcd60e51b8152600401620000f590620003ca565b6001600160601b0319606086811b821660805285811b821660a05284901b1660c0526040516001600160a01b0383169060009063c0a47c9360e01b90620001a7903090869060019086908190819060240162000355565b60408051601f198184030181529181526020820180516001600160e01b03166001600160e01b0319909416939093179092529051620001e7919062000319565b60006040518083038185875af1925050503d806000811462000226576040519150601f19603f3d011682016040523d82523d6000602084013e6200022b565b606091505b505050505050505062000418565b3390565b600080546001600160a01b038381166001600160a01b0319831681178455604051919092169283917f8be0079c531659141344cd1fd0a4f28419497f9722a3daafe3b4186f6b6457e09190a35050565b80516001600160a01b0381168114620002a557600080fd5b919050565b600080600080600060a08688031215620002c2578081fd5b620002cd866200028d565b9450620002dd602087016200028d565b9350620002ed604087016200028d565b9250620002fd606087016200028d565b91506200030d608087016200028d565b90509295509295909350565b60008251815b818110156200033b57602081860181015185830152016200031f565b818111156200034a5782828501525b509190910192915050565b6001600160a01b039687168152949095166020850152911515604084015260ff9081166060840152908116608083015290911660a082015260c00190565b60208082526014908201527f4c454e44494e475f4d414e414745525f5a45524f000000000000000000000000604082015260600190565b6020808252601190820152705049455f52454749535452595f5a45524f60781b604082015260600190565b602080825260099082015268574554485f5a45524f60b81b604082015260600190565b60805160601c60a05160601c60c05160601c61331b6200049e600039600081816108350152611e7d0152600081816106b70152818161136f0152611f300152600081816108cf0152818161090c01528181610945015281816115c0015281816116010152818161193a0152818161197701528181611a160152612357015261331b6000f3fe608060405234801561001057600080fd5b50600436106100cf5760003560e01c80639afdb2c21161008c578063d6d2aedb11610066578063d6d2aedb1461019c578063f2fde38b146101bc578063f4dbeeaf146101cf578063febf0e25146101e2576100cf565b80639afdb2c214610156578063a9dd14d614610169578063c1a5c7f114610189576100cf565b8063168a1a60146100d457806327726e7d146100e95780634ec8f6ae146100fc5780635a25d6b81461010f578063715018a6146101395780638da5cb5b14610141575b600080fd5b6100e76100e23660046129a8565b6101f5565b005b6100e76100f73660046128ae565b61026c565b6100e761010a3660046128d9565b61030b565b61012261011d366004612951565b610378565b604051610130929190613167565b60405180910390f35b6100e761055b565b6101496105a6565b6040516101309190612d0e565b6100e7610164366004612911565b6105b5565b61017c610177366004612911565b61067a565b6040516101309190612db7565b610149610197366004612876565b61099b565b6101af6101aa366004612911565b6109b6565b6040516101309190613043565b6100e76101ca366004612876565b610b29565b6100e76101dd366004612951565b610b9a565b6100e76101f0366004612996565b611198565b6101fd6111f3565b6001600160a01b031661020e6105a6565b6001600160a01b03161461023d5760405162461bcd60e51b815260040161023490612f1e565b60405180910390fd5b6001600160a01b03919091166000908152600260205260409020805461ffff191661ffff909216919091179055565b6102746111f3565b6001600160a01b03166102856105a6565b6001600160a01b0316146102ab5760405162461bcd60e51b815260040161023490612f1e565b816001600160a01b0316816040516102c290612d0b565b60006040518083038185875af1925050503d80600081146102ff576040519150601f19603f3d011682016040523d82523d6000602084013e610304565b606091505b5050505050565b6103136111f3565b6001600160a01b03166103246105a6565b6001600160a01b03161461034a5760405162461bcd60e51b815260040161023490612f1e565b6001600160a01b03918216600090815260036020526040902080546001600160a01b03191691909216179055565b600080858561039a6103886111f3565b6001600160a01b0384169030896111f7565b6103a68888888861124f565b92506000826001600160a01b03166370a08231306040518263ffffffff1660e01b81526004016103d69190612d0e565b60206040518083038186803b1580156103ee57600080fd5b505afa158015610402573d6000803e3d6000fd5b505050506040513d601f19601f820116820180604052508101906104269190612c11565b9050801561053257826001600160a01b031663a9059cbb6104456111f3565b6040516370a0823160e01b81526001600160a01b038716906370a0823190610471903090600401612d0e565b60206040518083038186803b15801561048957600080fd5b505afa15801561049d573d6000803e3d6000fd5b505050506040513d601f19601f820116820180604052508101906104c19190612c11565b6040518363ffffffff1660e01b81526004016104de929190612d7b565b602060405180830381600087803b1580156104f857600080fd5b505af115801561050c573d6000803e3d6000fd5b505050506040513d601f19601f820116820180604052508101906105309190612bf1565b505b61054e61053d6111f3565b6001600160a01b03841690866112e1565b5050505b94509492505050565b6105636111f3565b6001600160a01b03166105746105a6565b6001600160a01b03161461059a5760405162461bcd60e51b815260040161023490612f1e565b6105a46000611305565b565b6000546001600160a01b031690565b6105bd6111f3565b6001600160a01b03166105ce6105a6565b6001600160a01b0316146105f45760405162461bcd60e51b815260040161023490612f1e565b60405163a9059cbb60e01b81526001600160a01b0384169063a9059cbb906106229085908590600401612d7b565b602060405180830381600087803b15801561063c57600080fd5b505af1158015610650573d6000803e3d6000fd5b505050506040513d601f19601f820116820180604052508101906106749190612bf1565b50505050565b6000826001600160a01b0316846001600160a01b0316141561069d575080610994565b604051632aabce9960e11b81526000906001600160a01b037f000000000000000000000000000000000000000000000000000000000000000016906355579d32906106ec908790600401612d0e565b60206040518083038186803b15801561070457600080fd5b505afa158015610718573d6000803e3d6000fd5b505050506040513d601f19601f8201168201806040525081019061073c9190612892565b90506001600160a01b0381161561081e57600061075885611355565b90506000816001600160a01b031663dc3b7c8b876040518263ffffffff1660e01b81526004016107889190612d0e565b602060405180830381600087803b1580156107a257600080fd5b505af11580156107b6573d6000803e3d6000fd5b505050506040513d601f19601f820116820180604052508101906107da9190612c11565b90506000670de0b6b3a76400006107f1838861323e565b6107fb919061321e565b610806906001613206565b905061081388858361067a565b945050505050610994565b60405163e4ec552b60e01b81526001600160a01b037f0000000000000000000000000000000000000000000000000000000000000000169063e4ec552b9061086a908790600401612d0e565b60206040518083038186803b15801561088257600080fd5b505afa158015610896573d6000803e3d6000fd5b505050506040513d601f19601f820116820180604052508101906108ba9190612bf1565b156109435760006108cb858561146e565b90507f00000000000000000000000000000000000000000000000000000000000000006001600160a01b0316866001600160a01b03161461093a57610931867f00000000000000000000000000000000000000000000000000000000000000008361067a565b92505050610994565b91506109949050565b7f00000000000000000000000000000000000000000000000000000000000000006001600160a01b0316856001600160a01b03161461098157600080fd5b600061098e8686866109b6565b51925050505b9392505050565b6003602052600090815260409020546001600160a01b031681565b6109be61275b565b60008060006109cb61275b565b6001600160a01b0387166000908152600260205260408120546109f7908a908a908a9061ffff166116a0565b8184526020840181905260075491965091506001600160a01b0316631f00ca7488610a228c8c611936565b6040518363ffffffff1660e01b8152600401610a3f92919061314e565b60006040518083038186803b158015610a5757600080fd5b505afa925050508015610a8c57506040513d6000823e601f3d908101601f19168201604052610a899190810190612bbe565b60015b610a9a576000199350610ac7565b80600081518110610abb57634e487b7160e01b600052603260045260246000fd5b60200260200101519450505b8151841015610adb57838252600260208301525b6001600160a01b03881660009081526001602052604090205415610b1d57610b04898989611b67565b92508282600001511115610b1d57828252600360208301525b50979650505050505050565b610b316111f3565b6001600160a01b0316610b426105a6565b6001600160a01b031614610b685760405162461bcd60e51b815260040161023490612f1e565b6001600160a01b038116610b8e5760405162461bcd60e51b815260040161023490612e92565b610b9781611305565b50565b80610d785760408051610100810182526001600160a01b038087168252851660208201526101f49181019190915230606082015260009060808101610be0426001613206565b81526020810185905260001960408083019190915260006060909201829052600654905163095ea7b360e01b81529293506001600160a01b038881169363095ea7b393610c34939092169190600401612d7b565b602060405180830381600087803b158015610c4e57600080fd5b505af1158015610c62573d6000803e3d6000fd5b505050506040513d601f19601f82011682018060405250810190610c869190612bf1565b5060065460405163095ea7b360e01b81526001600160a01b038781169263095ea7b392610cbd929091169060001990600401612d7b565b602060405180830381600087803b158015610cd757600080fd5b505af1158015610ceb573d6000803e3d6000fd5b505050506040513d601f19601f82011682018060405250810190610d0f9190612bf1565b50600654604051631b67c43360e31b81526001600160a01b039091169063db3e219890610d4090849060040161305a565b600060405180830381600087803b158015610d5a57600080fd5b505af1158015610d6e573d6000803e3d6000fd5b5050505050610674565b8060011415610dc25760408051610100810182526001600160a01b03808716825285166020820152610bb89181019190915230606082015260009060808101610be0426001613206565b8060021415610f835760075460405163095ea7b360e01b81526001600160a01b038681169263095ea7b392610e009290911690600090600401612d7b565b602060405180830381600087803b158015610e1a57600080fd5b505af1158015610e2e573d6000803e3d6000fd5b505050506040513d601f19601f82011682018060405250810190610e529190612bf1565b5060075460405163095ea7b360e01b81526001600160a01b038681169263095ea7b392610e89929091169060001990600401612d7b565b602060405180830381600087803b158015610ea357600080fd5b505af1158015610eb7573d6000803e3d6000fd5b505050506040513d601f19601f82011682018060405250810190610edb9190612bf1565b506007546001600160a01b0316638803dbee83600019610efb8888611936565b30610f07426001613206565b6040518663ffffffff1660e01b8152600401610f27959493929190613175565b600060405180830381600087803b158015610f4157600080fd5b505af1158015610f55573d6000803e3d6000fd5b505050506040513d6000823e601f3d908101601f19168201604052610f7d9190810190612bbe565b50610674565b6040805160c0810182526001600160a01b038581166000818152600160208181528683205486528086018290528a851686880181905260608088019590955260808088018b905288518084018a5285815260a089015288519081018952308082529281018590528089019290925293810183905260048054975163095ea7b360e01b81529297919563095ea7b394611022949390911692909101612d7b565b602060405180830381600087803b15801561103c57600080fd5b505af1158015611050573d6000803e3d6000fd5b505050506040513d601f19601f820116820180604052508101906110749190612bf1565b506004805460405163095ea7b360e01b81526001600160a01b03808b169363095ea7b3936110a9939216916000199101612d7b565b602060405180830381600087803b1580156110c357600080fd5b505af11580156110d7573d6000803e3d6000fd5b505050506040513d601f19601f820116820180604052508101906110fb9190612bf1565b506004546001600160a01b03166352bbbe29838360001961111d426001613206565b6040518563ffffffff1660e01b815260040161113c94939291906130c3565b602060405180830381600087803b15801561115657600080fd5b505af115801561116a573d6000803e3d6000fd5b505050506040513d601f19601f8201168201806040525081019061118e9190612c11565b5050505050505050565b6111a06111f3565b6001600160a01b03166111b16105a6565b6001600160a01b0316146111d75760405162461bcd60e51b815260040161023490612f1e565b6001600160a01b03909116600090815260016020526040902055565b3390565b610674846323b872dd60e01b85858560405160240161121893929190612d57565b60408051601f198184030181529190526020810180516001600160e01b03166001600160e01b031990931692909217909152611db8565b600061125c858584611e47565b6040516370a0823160e01b81526001600160a01b038516906370a0823190611288903090600401612d0e565b60206040518083038186803b1580156112a057600080fd5b505afa1580156112b4573d6000803e3d6000fd5b505050506040513d601f19601f820116820180604052508101906112d89190612c11565b95945050505050565b6113008363a9059cbb60e01b8484604051602401611218929190612d7b565b505050565b600080546001600160a01b038381166001600160a01b0319831681178455604051919092169283917f8be0079c531659141344cd1fd0a4f28419497f9722a3daafe3b4186f6b6457e09190a35050565b604051632df6e47f60e21b81526000906001600160a01b037f0000000000000000000000000000000000000000000000000000000000000000169063f8b7f42290829063b7db91fc906113ac908790600401612d0e565b60206040518083038186803b1580156113c457600080fd5b505afa1580156113d8573d6000803e3d6000fd5b505050506040513d601f19601f820116820180604052508101906113fc9190612c11565b6040518263ffffffff1660e01b81526004016114189190612db7565b60206040518083038186803b15801561143057600080fd5b505afa158015611444573d6000803e3d6000fd5b505050506040513d601f19601f820116820180604052508101906114689190612892565b92915050565b604051630dc6eaf760e21b81526000908390829081906001600160a01b0384169063371babdc906114a3908890600401612db7565b60006040518083038186803b1580156114bb57600080fd5b505afa1580156114cf573d6000803e3d6000fd5b505050506040513d6000823e601f3d908101601f191682016040526114f79190810190612ad9565b915091506000805b83518110156116955760006003600086848151811061152e57634e487b7160e01b600052603260045260246000fd5b6020908102919091018101516001600160a01b039081168352908201929092526040016000205416905080156115fc5760006115b98287858151811061158457634e487b7160e01b600052603260045260246000fd5b60200260200101518786815181106115ac57634e487b7160e01b600052603260045260246000fd5b60200260200101516109b6565b90506115ea7f000000000000000000000000000000000000000000000000000000000000000083836000015161067a565b6115f49085613206565b935050611682565b6116757f000000000000000000000000000000000000000000000000000000000000000086848151811061164057634e487b7160e01b600052603260045260246000fd5b602002602001015186858151811061166857634e487b7160e01b600052603260045260246000fd5b602002602001015161067a565b61167f9084613206565b92505b508061168d81613289565b9150506114ff565b509695505050505050565b6000808261ffff166101f4141561174c576005546040516330d07f2160e01b81526001600160a01b03909116906330d07f21906116ec90899089906101f4908a90600090600401612d22565b602060405180830381600087803b15801561170657600080fd5b505af1925050508015611736575060408051601f3d908101601f1916820190925261173391810190612c11565b60015b611744576000199150611747565b91505b610552565b8261ffff16610bb814156117f8576005546040516330d07f2160e01b81526001600160a01b03909116906330d07f21906117959089908990610bb8908a90600090600401612d22565b602060405180830381600087803b1580156117af57600080fd5b505af19250505080156117df575060408051601f3d908101601f191682019092526117dc91810190612c11565b60015b6117ed5760001991506117f0565b91505b506001610552565b6005546040516330d07f2160e01b81526001600160a01b03909116906330d07f219061183390899089906101f4908a90600090600401612d22565b602060405180830381600087803b15801561184d57600080fd5b505af192505050801561187d575060408051601f3d908101601f1916820190925261187a91810190612c11565b60015b61188b57600019915061188e565b91505b6005546040516330d07f2160e01b81526001600160a01b03909116906330d07f21906118c99089908990610bb8908a90600090600401612d22565b602060405180830381600087803b1580156118e357600080fd5b505af1925050508015611913575060408051601f3d908101601f1916820190925261191091810190612c11565b60015b61191c57610552565b8083111561192c57600191508092505b5094509492505050565b60607f00000000000000000000000000000000000000000000000000000000000000006001600160a01b0316836001600160a01b0316141580156119ac57507f00000000000000000000000000000000000000000000000000000000000000006001600160a01b0316826001600160a01b031614155b15611abd5760408051600380825260808201909252906020820160608036833701905050905082816000815181106119f457634e487b7160e01b600052603260045260246000fd5b60200260200101906001600160a01b031690816001600160a01b0316815250507f000000000000000000000000000000000000000000000000000000000000000081600181518110611a5657634e487b7160e01b600052603260045260246000fd5b60200260200101906001600160a01b031690816001600160a01b0316815250508181600281518110611a9857634e487b7160e01b600052603260045260246000fd5b60200260200101906001600160a01b031690816001600160a01b031681525050611468565b60408051600280825260608201835290916020830190803683370190505090508281600081518110611aff57634e487b7160e01b600052603260045260246000fd5b60200260200101906001600160a01b031690816001600160a01b0316815250508181600181518110611b4157634e487b7160e01b600052603260045260246000fd5b60200260200101906001600160a01b031690816001600160a01b03168152505092915050565b604080516002808252606082018352600092600192849290916020830190803683370190505090508581600081518110611bb157634e487b7160e01b600052603260045260246000fd5b60200260200101906001600160a01b031690816001600160a01b0316815250508481600181518110611bf357634e487b7160e01b600052603260045260246000fd5b6001600160a01b039290921660209283029190910190910152604080516001808252818301909252600091816020015b611c2b612775565b815260200190600190039081611c235790505090506040518060a0016040528060016000896001600160a01b03166001600160a01b0316815260200190815260200160002054815260200160008152602001600181526020018681526020016040518060200160405280600081525081525081600081518110611cbe57634e487b7160e01b600052603260045260246000fd5b60209081029190910181019190915260408051608081018252338082526000938201849052818301526060810192909252600480549151637c26833760e11b81526001600160a01b039092169163f84d066e91611d2391889187918991889101612dc0565b600060405180830381600087803b158015611d3d57600080fd5b505af1925050508015611d7257506040513d6000823e601f3d908101601f19168201604052611d6f9190810190612b3a565b60015b611d80576000199450611dad565b80600081518110611da157634e487b7160e01b600052603260045260246000fd5b60200260200101519550505b505050509392505050565b6000611e0d826040518060400160405280602081526020017f5361666545524332303a206c6f772d6c6576656c2063616c6c206661696c6564815250856001600160a01b03166122a49092919063ffffffff16565b8051909150156113005780806020019051810190611e2b9190612bf1565b6113005760405162461bcd60e51b815260040161023490612fd4565b816001600160a01b0316836001600160a01b03161415611e6657611300565b60405163e4ec552b60e01b81526001600160a01b037f0000000000000000000000000000000000000000000000000000000000000000169063e4ec552b90611eb2908590600401612d0e565b60206040518083038186803b158015611eca57600080fd5b505afa158015611ede573d6000803e3d6000fd5b505050506040513d601f19601f82011682018060405250810190611f029190612bf1565b15611f1657611f1182826122bb565b611300565b604051632aabce9960e11b81526000906001600160a01b037f000000000000000000000000000000000000000000000000000000000000000016906355579d3290611f65908690600401612d0e565b60206040518083038186803b158015611f7d57600080fd5b505afa158015611f91573d6000803e3d6000fd5b505050506040513d601f19601f82011682018060405250810190611fb59190612892565b90506001600160a01b0381161561220f576000611fd184611355565b90506000816001600160a01b031663dc3b7c8b866040518263ffffffff1660e01b81526004016120019190612d0e565b602060405180830381600087803b15801561201b57600080fd5b505af115801561202f573d6000803e3d6000fd5b505050506040513d601f19601f820116820180604052508101906120539190612c11565b90506000670de0b6b3a764000061206a838761323e565b612074919061321e565b61207f906001613206565b905061208c878583611e47565b600080846001600160a01b0316637b1c44328785306040518463ffffffff1660e01b81526004016120bf93929190612d94565b60006040518083038186803b1580156120d757600080fd5b505afa1580156120eb573d6000803e3d6000fd5b505050506040513d6000823e601f3d908101601f1916820160405261211391908101906129db565b9150915060005b825181101561220357600083828151811061214557634e487b7160e01b600052603260045260246000fd5b60200260200101516001600160a01b0316600084848151811061217857634e487b7160e01b600052603260045260246000fd5b602002602001015160405161218d9190612cef565b60006040518083038185875af1925050503d80600081146121ca576040519150601f19603f3d011682016040523d82523d6000602084013e6121cf565b606091505b50509050806121f05760405162461bcd60e51b81526004016102349061301e565b50806121fb81613289565b91505061211a565b50505050505050611300565b6001600160a01b0380841660009081526003602052604090205416801561227d57600061223d8286866109b6565b90506000612250878484600001516109b6565b9050612266878484600001518460200151610b9a565b6122768387878560200151610b9a565b5050610304565b600061228a8686866109b6565b905061229c8686868460200151610b9a565b505050505050565b60606122b3848460008561265c565b949350505050565b604051630dc6eaf760e21b8152829060009081906001600160a01b0384169063371babdc906122ee908790600401612db7565b60006040518083038186803b15801561230657600080fd5b505afa15801561231a573d6000803e3d6000fd5b505050506040513d6000823e601f3d908101601f191682016040526123429190810190612ad9565b9150915060005b82518110156125f6576123cb7f000000000000000000000000000000000000000000000000000000000000000084838151811061239657634e487b7160e01b600052603260045260246000fd5b60200260200101518484815181106123be57634e487b7160e01b600052603260045260246000fd5b6020026020010151611e47565b60008382815181106123ed57634e487b7160e01b600052603260045260246000fd5b60200260200101519050806001600160a01b031663095ea7b38860006040518363ffffffff1660e01b8152600401612426929190612d7b565b602060405180830381600087803b15801561244057600080fd5b505af1158015612454573d6000803e3d6000fd5b505050506040513d601f19601f820116820180604052508101906124789190612bf1565b50806001600160a01b031663095ea7b3888585815181106124a957634e487b7160e01b600052603260045260246000fd5b60200260200101516040518363ffffffff1660e01b81526004016124ce929190612d7b565b602060405180830381600087803b1580156124e857600080fd5b505af11580156124fc573d6000803e3d6000fd5b505050506040513d601f19601f820116820180604052508101906125209190612bf1565b506040516370a0823160e01b81526001600160a01b038216906370a082319061254d903090600401612d0e565b60206040518083038186803b15801561256557600080fd5b505afa158015612579573d6000803e3d6000fd5b505050506040513d601f19601f8201168201806040525081019061259d9190612c11565b8383815181106125bd57634e487b7160e01b600052603260045260246000fd5b602002602001015111156125e35760405162461bcd60e51b815260040161023490612f8a565b50806125ee81613289565b915050612349565b506040516334e7a19f60e01b81526001600160a01b038416906334e7a19f90612623908790600401612db7565b600060405180830381600087803b15801561263d57600080fd5b505af1158015612651573d6000803e3d6000fd5b505050505050505050565b60608247101561267e5760405162461bcd60e51b815260040161023490612ed8565b6126878561271c565b6126a35760405162461bcd60e51b815260040161023490612f53565b600080866001600160a01b031685876040516126bf9190612cef565b60006040518083038185875af1925050503d80600081146126fc576040519150601f19603f3d011682016040523d82523d6000602084013e612701565b606091505b5091509150612711828286612722565b979650505050505050565b3b151590565b60608315612731575081610994565b8251156127415782518084602001fd5b8160405162461bcd60e51b81526004016102349190612e7f565b604051806040016040528060008152602001600081525090565b6040518060a0016040528060008019168152602001600081526020016000815260200160008152602001606081525090565b600082601f8301126127b7578081fd5b815160206127cc6127c7836131e2565b6131b1565b82815281810190858301838502870184018810156127e8578586fd5b855b8581101561280f5781516127fd816132d0565b845292840192908401906001016127ea565b5090979650505050505050565b600082601f83011261282c578081fd5b8151602061283c6127c7836131e2565b8281528181019085830183850287018401881015612858578586fd5b855b8581101561280f5781518452928401929084019060010161285a565b600060208284031215612887578081fd5b8135610994816132d0565b6000602082840312156128a3578081fd5b8151610994816132d0565b600080604083850312156128c0578081fd5b82356128cb816132d0565b946020939093013593505050565b600080604083850312156128eb578182fd5b82356128f6816132d0565b91506020830135612906816132d0565b809150509250929050565b600080600060608486031215612925578081fd5b8335612930816132d0565b92506020840135612940816132d0565b929592945050506040919091013590565b60008060008060808587031215612966578182fd5b8435612971816132d0565b93506020850135612981816132d0565b93969395505050506040820135916060013590565b600080604083850312156128c0578182fd5b600080604083850312156129ba578182fd5b82356129c5816132d0565b9150602083013561ffff81168114612906578182fd5b60008060408084860312156129ee578283fd5b835167ffffffffffffffff80821115612a05578485fd5b612a11878388016127a7565b9450602091508186015181811115612a27578485fd5b8601601f81018813612a37578485fd5b8051612a456127c7826131e2565b81815284810190838601885b84811015612ac757815186018d603f820112612a6b578a8bfd5b8881015188811115612a7f57612a7f6132ba565b612a91601f8201601f19168b016131b1565b8181528f8c838501011115612aa4578c8dfd5b612ab3828c83018e860161325d565b865250509287019290870190600101612a51565b50989b909a5098505050505050505050565b60008060408385031215612aeb578182fd5b825167ffffffffffffffff80821115612b02578384fd5b612b0e868387016127a7565b93506020850151915080821115612b23578283fd5b50612b308582860161281c565b9150509250929050565b60006020808385031215612b4c578182fd5b825167ffffffffffffffff811115612b62578283fd5b8301601f81018513612b72578283fd5b8051612b806127c7826131e2565b8181528381019083850185840285018601891015612b9c578687fd5b8694505b83851015610b1d578051835260019490940193918501918501612ba0565b600060208284031215612bcf578081fd5b815167ffffffffffffffff811115612be5578182fd5b6122b38482850161281c565b600060208284031215612c02578081fd5b81518015158114610994578182fd5b600060208284031215612c22578081fd5b5051919050565b6000815180845260208085019450808401835b83811015612c615781516001600160a01b031687529582019590820190600101612c3c565b509495945050505050565b60008151808452612c8481602086016020860161325d565b601f01601f19169290920160200192915050565b60028110612cb657634e487b7160e01b600052602160045260246000fd5b9052565b80516001600160a01b039081168352602080830151151590840152604080830151909116908301526060908101511515910152565b60008251612d0181846020870161325d565b9190910192915050565b90565b6001600160a01b0391909116815260200190565b6001600160a01b039586168152938516602085015262ffffff9290921660408401526060830152909116608082015260a00190565b6001600160a01b039384168152919092166020820152604081019190915260600190565b6001600160a01b03929092168252602082015260400190565b6001600160a01b0393841681526020810192909252909116604082015260600190565b90815260200190565b600060e08201612dd08388612c98565b602060e08185015281875180845261010093508386019150838382028701019350828901855b82811015612e585787860360ff190184528151805187528581015186880152604080820151908801526060808201519088015260809081015160a091880182905290612e4481890183612c6c565b975050509284019290840190600101612df6565b50505050508281036040840152612e6f8186612c29565b9150506112d86060830184612cba565b6000602082526109946020830184612c6c565b60208082526026908201527f4f776e61626c653a206e6577206f776e657220697320746865207a65726f206160408201526564647265737360d01b606082015260800190565b60208082526026908201527f416464726573733a20696e73756666696369656e742062616c616e636520666f6040820152651c8818d85b1b60d21b606082015260800190565b6020808252818101527f4f776e61626c653a2063616c6c6572206973206e6f7420746865206f776e6572604082015260600190565b6020808252601d908201527f416464726573733a2063616c6c20746f206e6f6e2d636f6e7472616374000000604082015260600190565b6020808252602a908201527f57652061726520747279696e6720746f206465706f736974206d6f7265207468604082015269656e207765206861766560b01b606082015260800190565b6020808252602a908201527f5361666545524332303a204552433230206f7065726174696f6e20646964206e6040820152691bdd081cdd58d8d9595960b21b606082015260800190565b6020808252600b908201526a10d0531317d1905253115160aa1b604082015260600190565b815181526020918201519181019190915260400190565b81516001600160a01b03908116825260208084015182169083015260408084015162ffffff16908301526060808401518216908301526080808401519083015260a0838101519083015260c0808401519083015260e09283015116918101919091526101000190565b600060e08252855160e083015260208601516130e3610100840182612c98565b5060408601516001600160a01b03908116610120840152606087015116610140830152608086015161016083015260a086015160c061018084015261312c6101a0840182612c6c565b91505061313c6020830186612cba565b60a082019390935260c0015292915050565b6000838252604060208301526122b36040830184612c29565b918252602082015260400190565b600086825285602083015260a0604083015261319460a0830186612c29565b6001600160a01b0394909416606083015250608001529392505050565b604051601f8201601f1916810167ffffffffffffffff811182821017156131da576131da6132ba565b604052919050565b600067ffffffffffffffff8211156131fc576131fc6132ba565b5060209081020190565b60008219821115613219576132196132a4565b500190565b60008261323957634e487b7160e01b81526012600452602481fd5b500490565b6000816000190483118215151615613258576132586132a4565b500290565b60005b83811015613278578181015183820152602001613260565b838111156106745750506000910152565b600060001982141561329d5761329d6132a4565b5060010190565b634e487b7160e01b600052601160045260246000fd5b634e487b7160e01b600052604160045260246000fd5b6001600160a01b0381168114610b9757600080fdfea26469706673582212207878b3822d32500ee2be5507499b1e80c19eae65f0fdb8f4be4e466e6a9d0fbf64736f6c63430008010033",
    "linkReferences": {}
  }
}