{
  "abi": [
    {
      "anonymous": false,
      "inputs": [
        {
          "indexed": false,
          "internalType": "uint256",
          "name": "fee",
          "type": "uint256"
        }
      ],
      "name": "AnnualizedFeeSet",
      "type": "event"
    },
    {
      "anonymous": false,
      "inputs": [
        {
          "indexed": false,
          "internalType": "uint256",
          "name": "cap",
          "type": "uint256"
        }
      ],
      "name": "CapSet",
      "type": "event"
    },
    {
      "anonymous": false,
      "inputs": [
        {
          "indexed": false,
          "internalType": "uint256",
          "name": "share",
          "type": "uint256"
        }
      ],
      "name": "EntryFeeBeneficiaryShareSet",
      "type": "event"
    },
    {
      "anonymous": false,
      "inputs": [
        {
          "indexed": false,
          "internalType": "uint256",
          "name": "fee",
          "type": "uint256"
        }
      ],
      "name": "EntryFeeSet",
      "type": "event"
    },
    {
      "anonymous": false,
      "inputs": [
        {
          "indexed": false,
          "internalType": "uint256",
          "name": "share",
          "type": "uint256"
        }
      ],
      "name": "ExitFeeBeneficiaryShareSet",
      "type": "event"
    },
    {
      "anonymous": false,
      "inputs": [
        {
          "indexed": false,
          "internalType": "uint256",
          "name": "fee",
          "type": "uint256"
        }
      ],
      "name": "ExitFeeSet",
      "type": "event"
    },
    {
      "anonymous": false,
      "inputs": [
        {
          "indexed": true,
          "internalType": "address",
          "name": "beneficiary",
          "type": "address"
        }
      ],
      "name": "FeeBeneficiarySet",
      "type": "event"
    },
    {
      "anonymous": false,
      "inputs": [
        {
          "indexed": false,
          "internalType": "uint256",
          "name": "amount",
          "type": "uint256"
        }
      ],
      "name": "FeeCharged",
      "type": "event"
    },
    {
      "anonymous": false,
      "inputs": [
        {
          "indexed": false,
          "internalType": "uint256",
          "name": "lockBlock",
          "type": "uint256"
        }
      ],
      "name": "LockSet",
      "type": "event"
    },
    {
      "anonymous": false,
      "inputs": [
        {
          "indexed": true,
          "internalType": "address",
          "name": "who",
          "type": "address"
        },
        {
          "indexed": false,
          "internalType": "uint256",
          "name": "amount",
          "type": "uint256"
        }
      ],
      "name": "PoolExited",
      "type": "event"
    },
    {
      "anonymous": false,
      "inputs": [
        {
          "indexed": true,
          "internalType": "address",
          "name": "who",
          "type": "address"
        },
        {
          "indexed": false,
          "internalType": "uint256",
          "name": "amount",
          "type": "uint256"
        }
      ],
      "name": "PoolJoined",
      "type": "event"
    },
    {
      "anonymous": false,
      "inputs": [
        {
          "indexed": true,
          "internalType": "address",
          "name": "_token",
          "type": "address"
        }
      ],
      "name": "TokenAdded",
      "type": "event"
    },
    {
      "anonymous": false,
      "inputs": [
        {
          "indexed": true,
          "internalType": "address",
          "name": "_token",
          "type": "address"
        }
      ],
      "name": "TokenRemoved",
      "type": "event"
    },
    {
      "inputs": [],
      "name": "HUNDRED_PERCENT",
      "outputs": [
        {
          "internalType": "uint256",
          "name": "",
          "type": "uint256"
        }
      ],
      "stateMutability": "view",
      "type": "function"
    },
    {
      "inputs": [],
      "name": "MAX_ANNUAL_FEE",
      "outputs": [
        {
          "internalType": "uint256",
          "name": "",
          "type": "uint256"
        }
      ],
      "stateMutability": "view",
      "type": "function"
    },
    {
      "inputs": [],
      "name": "MAX_ENTRY_FEE",
      "outputs": [
        {
          "internalType": "uint256",
          "name": "",
          "type": "uint256"
        }
      ],
      "stateMutability": "view",
      "type": "function"
    },
    {
      "inputs": [],
      "name": "MAX_EXIT_FEE",
      "outputs": [
        {
          "internalType": "uint256",
          "name": "",
          "type": "uint256"
        }
      ],
      "stateMutability": "view",
      "type": "function"
    },
    {
      "inputs": [],
      "name": "MAX_TOKENS",
      "outputs": [
        {
          "internalType": "uint256",
          "name": "",
          "type": "uint256"
        }
      ],
      "stateMutability": "view",
      "type": "function"
    },
    {
      "inputs": [],
      "name": "MIN_AMOUNT",
      "outputs": [
        {
          "internalType": "uint256",
          "name": "",
          "type": "uint256"
        }
      ],
      "stateMutability": "view",
      "type": "function"
    },
    {
      "inputs": [
        {
          "internalType": "address",
          "name": "_token",
          "type": "address"
        }
      ],
      "name": "addToken",
      "outputs": [],
      "stateMutability": "nonpayable",
      "type": "function"
    },
    {
      "inputs": [
        {
          "internalType": "address",
          "name": "_token",
          "type": "address"
        }
      ],
      "name": "balance",
      "outputs": [
        {
          "internalType": "uint256",
          "name": "",
          "type": "uint256"
        }
      ],
      "stateMutability": "view",
      "type": "function"
    },
    {
      "inputs": [],
      "name": "calcOutStandingAnnualizedFee",
      "outputs": [
        {
          "internalType": "uint256",
          "name": "",
          "type": "uint256"
        }
      ],
      "stateMutability": "view",
      "type": "function"
    },
    {
      "inputs": [
        {
          "internalType": "uint256",
          "name": "_amount",
          "type": "uint256"
        }
      ],
      "name": "calcTokensForAmount",
      "outputs": [
        {
          "internalType": "address[]",
          "name": "tokens",
          "type": "address[]"
        },
        {
          "internalType": "uint256[]",
          "name": "amounts",
          "type": "uint256[]"
        }
      ],
      "stateMutability": "view",
      "type": "function"
    },
    {
      "inputs": [
        {
          "internalType": "uint256",
          "name": "_amount",
          "type": "uint256"
        }
      ],
      "name": "calcTokensForAmountExit",
      "outputs": [
        {
          "internalType": "address[]",
          "name": "tokens",
          "type": "address[]"
        },
        {
          "internalType": "uint256[]",
          "name": "amounts",
          "type": "uint256[]"
        }
      ],
      "stateMutability": "view",
      "type": "function"
    },
    {
      "inputs": [],
      "name": "chargeOutstandingAnnualizedFee",
      "outputs": [],
      "stateMutability": "nonpayable",
      "type": "function"
    },
    {
      "inputs": [
        {
          "internalType": "uint256",
          "name": "_amount",
          "type": "uint256"
        }
      ],
      "name": "exitPool",
      "outputs": [],
      "stateMutability": "nonpayable",
      "type": "function"
    },
    {
      "inputs": [],
      "name": "getAnnualizedFee",
      "outputs": [
        {
          "internalType": "uint256",
          "name": "",
          "type": "uint256"
        }
      ],
      "stateMutability": "view",
      "type": "function"
    },
    {
      "inputs": [],
      "name": "getCap",
      "outputs": [
        {
          "internalType": "uint256",
          "name": "",
          "type": "uint256"
        }
      ],
      "stateMutability": "view",
      "type": "function"
    },
    {
      "inputs": [],
      "name": "getEntryFee",
      "outputs": [
        {
          "internalType": "uint256",
          "name": "",
          "type": "uint256"
        }
      ],
      "stateMutability": "view",
      "type": "function"
    },
    {
      "inputs": [],
      "name": "getEntryFeeBeneficiaryShare",
      "outputs": [
        {
          "internalType": "uint256",
          "name": "",
          "type": "uint256"
        }
      ],
      "stateMutability": "view",
      "type": "function"
    },
    {
      "inputs": [],
      "name": "getExitFee",
      "outputs": [
        {
          "internalType": "uint256",
          "name": "",
          "type": "uint256"
        }
      ],
      "stateMutability": "view",
      "type": "function"
    },
    {
      "inputs": [],
      "name": "getExitFeeBeneficiaryShare",
      "outputs": [
        {
          "internalType": "uint256",
          "name": "",
          "type": "uint256"
        }
      ],
      "stateMutability": "view",
      "type": "function"
    },
    {
      "inputs": [],
      "name": "getFeeBeneficiary",
      "outputs": [
        {
          "internalType": "address",
          "name": "",
          "type": "address"
        }
      ],
      "stateMutability": "view",
      "type": "function"
    },
    {
      "inputs": [],
      "name": "getLock",
      "outputs": [
        {
          "internalType": "bool",
          "name": "",
          "type": "bool"
        }
      ],
      "stateMutability": "view",
      "type": "function"
    },
    {
      "inputs": [],
      "name": "getLockBlock",
      "outputs": [
        {
          "internalType": "uint256",
          "name": "",
          "type": "uint256"
        }
      ],
      "stateMutability": "view",
      "type": "function"
    },
    {
      "inputs": [
        {
          "internalType": "address",
          "name": "_token",
          "type": "address"
        }
      ],
      "name": "getTokenInPool",
      "outputs": [
        {
          "internalType": "bool",
          "name": "",
          "type": "bool"
        }
      ],
      "stateMutability": "view",
      "type": "function"
    },
    {
      "inputs": [],
      "name": "getTokens",
      "outputs": [
        {
          "internalType": "address[]",
          "name": "",
          "type": "address[]"
        }
      ],
      "stateMutability": "view",
      "type": "function"
    },
    {
      "inputs": [
        {
          "internalType": "uint256",
          "name": "_amount",
          "type": "uint256"
        }
      ],
      "name": "joinPool",
      "outputs": [],
      "stateMutability": "nonpayable",
      "type": "function"
    },
    {
      "inputs": [
        {
          "internalType": "address",
          "name": "_token",
          "type": "address"
        }
      ],
      "name": "removeToken",
      "outputs": [],
      "stateMutability": "nonpayable",
      "type": "function"
    },
    {
      "inputs": [
        {
          "internalType": "uint256",
          "name": "_fee",
          "type": "uint256"
        }
      ],
      "name": "setAnnualizedFee",
      "outputs": [],
      "stateMutability": "nonpayable",
      "type": "function"
    },
    {
      "inputs": [
        {
          "internalType": "uint256",
          "name": "_maxCap",
          "type": "uint256"
        }
      ],
      "name": "setCap",
      "outputs": [],
      "stateMutability": "nonpayable",
      "type": "function"
    },
    {
      "inputs": [
        {
          "internalType": "uint256",
          "name": "_fee",
          "type": "uint256"
        }
      ],
      "name": "setEntryFee",
      "outputs": [],
      "stateMutability": "nonpayable",
      "type": "function"
    },
    {
      "inputs": [
        {
          "internalType": "uint256",
          "name": "_share",
          "type": "uint256"
        }
      ],
      "name": "setEntryFeeBeneficiaryShare",
      "outputs": [],
      "stateMutability": "nonpayable",
      "type": "function"
    },
    {
      "inputs": [
        {
          "internalType": "uint256",
          "name": "_fee",
          "type": "uint256"
        }
      ],
      "name": "setExitFee",
      "outputs": [],
      "stateMutability": "nonpayable",
      "type": "function"
    },
    {
      "inputs": [
        {
          "internalType": "uint256",
          "name": "_share",
          "type": "uint256"
        }
      ],
      "name": "setExitFeeBeneficiaryShare",
      "outputs": [],
      "stateMutability": "nonpayable",
      "type": "function"
    },
    {
      "inputs": [
        {
          "internalType": "address",
          "name": "_beneficiary",
          "type": "address"
        }
      ],
      "name": "setFeeBeneficiary",
      "outputs": [],
      "stateMutability": "nonpayable",
      "type": "function"
    },
    {
      "inputs": [
        {
          "internalType": "uint256",
          "name": "_lock",
          "type": "uint256"
        }
      ],
      "name": "setLock",
      "outputs": [],
      "stateMutability": "nonpayable",
      "type": "function"
    }
  ],
  "bytecode": {
    "object": "0x608060405234801561001057600080fd5b5061261f806100206000396000f3fe608060405234801561001057600080fd5b50600436106102065760003560e01c8063ad293cf21161011a578063e586a4f0116100ad578063ecb0116a1161007c578063ecb0116a1461056b578063ef51242414610573578063f47c84c514610590578063f50ab0de14610317578063fff3087c1461059857610206565b8063e586a4f014610521578063e5a583a914610529578063eb770d0c14610546578063ec9c2b391461056357610206565b8063d48bfca7116100e9578063d48bfca7146104a9578063d908c3e5146104cf578063ddbcb5fa146104f3578063e3d670d7146104fb57610206565b8063ad293cf214610441578063aecb935614610449578063be1d24ad1461046f578063d3e157471461048c57610206565b80635a0a3d821161019d5780637e5852d91161016c5780637e5852d9146103a85780638a8257dd146103c45780639baf58d2146103175780639d3f7dd4146103e1578063aa6ca808146103e957610206565b80635a0a3d821461034c5780635d44c9cb146103725780635fa7b5841461037a5780636ed93dd0146103a057610206565b80633809283a116101d95780633809283a1461031757806347786d371461031f578063554d578d1461033c578063560ad1341461034457610206565b806323817b8e1461020b57806334e7a19f146102c1578063366254e8146102e0578063371babdc146102fa575b600080fd5b6102286004803603602081101561022157600080fd5b50356105b5565b604051808060200180602001838103835285818151815260200191508051906020019060200280838360005b8381101561026c578181015183820152602001610254565b50505050905001838103825284818151815260200191508051906020019060200280838360005b838110156102ab578181015183820152602001610293565b5050505090500194505050505060405180910390f35b6102de600480360360208110156102d757600080fd5b503561075a565b005b6102e8610ad3565b60408051918252519081900360200190f35b6102286004803603602081101561031057600080fd5b5035610ae7565b6102e8610c71565b6102de6004803603602081101561033557600080fd5b5035610c7d565b6102e8610d20565b6102e8610d33565b6102de6004803603602081101561036257600080fd5b50356001600160a01b0316610d43565b6102de610e01565b6102de6004803603602081101561039057600080fd5b50356001600160a01b0316610e74565b6102e8611081565b6103b061108d565b604080519115158252519081900360200190f35b6102de600480360360208110156103da57600080fd5b50356110b0565b6102e86111a4565b6103f16111b7565b60408051602080825283518183015283519192839290830191858101910280838360005b8381101561042d578181015183820152602001610415565b505050509050019250505060405180910390f35b6102e86112ba565b6103b06004803603602081101561045f57600080fd5b50356001600160a01b03166112cd565b6102de6004803603602081101561048557600080fd5b50356112fc565b6102de600480360360208110156104a257600080fd5b503561162a565b6102de600480360360208110156104bf57600080fd5b50356001600160a01b03166116ca565b6104d76118b9565b604080516001600160a01b039092168252519081900360200190f35b6102e86118d5565b6102e86004803603602081101561051157600080fd5b50356001600160a01b03166118dc565b6102e861195d565b6102de6004803603602081101561053f57600080fd5b5035611970565b6102de6004803603602081101561055c57600080fd5b5035611a5e565b6102e8611b4c565b6102e8611be0565b6102de6004803603602081101561058957600080fd5b5035611bf3565b6102e8611ce9565b6102de600480360360208110156105ae57600080fd5b5035611cee565b60608060006105c2611de2565b905060006105ef670de0b6b3a76400006105e9846006015488611e0690919063ffffffff16565b90611e68565b905060006106106105fe611b4c565b610606611eaa565b6002015490611ece565b600284015490915067ffffffffffffffff8111801561062e57600080fd5b50604051908082528060200260200182016040528015610658578160200160208202803683370190505b50600284015490955067ffffffffffffffff8111801561067757600080fd5b506040519080825280602002602001820160405280156106a1578160200160208202803683370190505b50935060005b60028401548110156107515760008460020182815481106106c457fe5b60009182526020822001546001600160a01b031691506106e3826118dc565b905060006106ff856105e96106f88d8a611f28565b8590611e06565b90508289858151811061070e57fe5b60200260200101906001600160a01b031690816001600160a01b0316815250508088858151811061073b57fe5b60209081029190910101525050506001016106a7565b50505050915091565b6000610764611f6a565b805460010180825560408051637e5852d960e01b8152905192935090913091637e5852d9916004808301926020929190829003018186803b1580156107a857600080fd5b505afa1580156107bc573d6000803e3d6000fd5b505050506040513d60208110156107d257600080fd5b505115610814576040805162461bcd60e51b815260206004820152600b60248201526a1413d3d317d313d0d2d15160aa1b604482015290519081900360640190fd5b61081c610e01565b6000610826611de2565b90506000610832611eaa565b600201549050306001600160a01b031663554d578d6040518163ffffffff1660e01b815260040160206040518083038186803b15801561087157600080fd5b505afa158015610885573d6000803e3d6000fd5b505050506040513d602081101561089b57600080fd5b50516108a78287611ece565b11156108f1576040805162461bcd60e51b815260206004820152601460248201527313505617d413d3d317d0d05417d4915050d2115160621b604482015290519081900360640190fd5b6000610916670de0b6b3a76400006105e9856004015489611e0690919063ffffffff16565b905060005b60028401548110156109d457600084600201828154811061093857fe5b60009182526020822001546001600160a01b0316915061096e856105e961095f8c88611ece565b610968866118dc565b90611e06565b9050806109b5576040805162461bcd60e51b815260206004820152601060248201526f105353d5539517d513d3d7d4d350531360821b604482015290519081900360640190fd5b6109ca6001600160a01b038316333084611f8e565b505060010161091b565b5080158015906109e75750600583015415155b80156109ff5750600a8301546001600160a01b031615155b15610a4b576000610a29670de0b6b3a76400006105e9866005015485611e0690919063ffffffff16565b90508015610a4957600a840154610a49906001600160a01b031682611fee565b505b610a553387611fee565b60408051878152905133917f7a011ddbb8da163de89faccb018bb75c616e6ac270738b8bf1785f08ae1b2d6f919081900360200190a25050825482149050610ace5760405162461bcd60e51b81526004018080602001828103825260328152602001806125b86032913960400191505060405180910390fd5b505050565b6000610add611de2565b6007015490505b90565b6060806000610af4611de2565b90506000610b036105fe611b4c565b600283015490915067ffffffffffffffff81118015610b2157600080fd5b50604051908082528060200260200182016040528015610b4b578160200160208202803683370190505b50600283015490945067ffffffffffffffff81118015610b6a57600080fd5b50604051908082528060200260200182016040528015610b94578160200160208202803683370190505b50925060005b6002830154811015610c69576000836002018281548110610bb757fe5b60009182526020822001546001600160a01b03169150610bd6826118dc565b90506000610be8856105e9848c611e06565b9050610c17610c10670de0b6b3a76400006105e9896004015485611e0690919063ffffffff16565b8290611ece565b905082888581518110610c2657fe5b60200260200101906001600160a01b031690816001600160a01b03168152505080878581518110610c5357fe5b6020908102919091010152505050600101610b9a565b505050915091565b67016345785d8a000081565b610c856120e5565b600401546001600160a01b0316331480610c9e57503330145b610cdd576040805162461bcd60e51b815260206004820152600b60248201526a1393d517d0531313d5d15160aa1b604482015290519081900360640190fd5b80610ce6611de2565b600101556040805182815290517f9872d5eb566b79923d043f1b59aca655ca80a2bb5b6bca4824e515b0e398902f9181900360200190a150565b6000610d2a611de2565b60010154905090565b6000610d3d611de2565b54905090565b610d4b6120e5565b600401546001600160a01b0316331480610d6457503330145b610da3576040805162461bcd60e51b815260206004820152600b60248201526a1393d517d0531313d5d15160aa1b604482015290519081900360640190fd5b610dab610e01565b80610db4611de2565b600a0180546001600160a01b0319166001600160a01b03928316179055604051908216907ff7015098f8d6fa48f0560725ffd5f81bf687ee5ac45153b590bdcb04648bbdd390600090a250565b6000610e0b611b4c565b90506000610e17611de2565b42600982015590508115610e3d57600a810154610e3d906001600160a01b031683611fee565b6040805183815290517fccac4111799e8a37144a6ae9e90ea146dcd86f34f155783a8ce97c546ad8c2fe9181900360200190a15050565b610e7c6120e5565b600401546001600160a01b0316331480610e9557503330145b610ed4576040805162461bcd60e51b815260206004820152600b60248201526a1393d517d0531313d5d15160aa1b604482015290519081900360640190fd5b6000610ede611de2565b6001600160a01b038316600090815260038201602052604090205490915060ff16610f44576040805162461bcd60e51b81526020600482015260116024820152701513d2d15397d393d517d25397d413d3d3607a1b604482015290519081900360640190fd5b6001600160a01b03821660009081526003820160205260408120805460ff191690555b6002820154811015610ace57826001600160a01b0316826002018281548110610f8c57fe5b6000918252602090912001546001600160a01b03161415611079576002820180546000198101908110610fbb57fe5b6000918252602090912001546002830180546001600160a01b039092169183908110610fe357fe5b9060005260206000200160006101000a8154816001600160a01b0302191690836001600160a01b031602179055508160020180548061101e57fe5b600082815260208120820160001990810180546001600160a01b03191690559091019091556040516001600160a01b038516917f4c910b69fe65a61f7531b9c5042b2329ca7179c77290aa7e2eb3afa3c8511fd391a2610ace565b600101610f67565b670de0b6b3a764000081565b600080611098611de2565b805490915015806110aa575080544311155b91505090565b6110b86120e5565b600401546001600160a01b03163314806110d157503330145b611110576040805162461bcd60e51b815260206004820152600b60248201526a1393d517d0531313d5d15160aa1b604482015290519081900360640190fd5b670de0b6b3a7640000811115611161576040805162461bcd60e51b81526020600482015260116024820152704645455f53484152455f544f4f5f42494760781b604482015290519081900360640190fd5b8061116a611de2565b600501556040805182815290517f34099db0e58e33c67a0ceae8361ed3a1d587d9fb194626eb7d65ecd51fa4f4d79181900360200190a150565b60006111ae611de2565b60050154905090565b6060806111c2611de2565b60020180548060200260200160405190810160405280929190818152602001828054801561121957602002820191906000526020600020905b81546001600160a01b031681526001909101906020018083116111fb575b505050505090506060815167ffffffffffffffff8111801561123a57600080fd5b50604051908082528060200260200182016040528015611264578160200160208202803683370190505b50905060005b82518110156112b35782818151811061127f57fe5b602002602001015182828151811061129357fe5b6001600160a01b039092166020928302919091019091015260010161126a565b5091505090565b60006112c4611de2565b60080154905090565b60006112d7611de2565b6001600160a01b03929092166000908152600390920160205250604090205460ff1690565b6000611306611f6a565b805460010180825560408051637e5852d960e01b8152905192935090913091637e5852d9916004808301926020929190829003018186803b15801561134a57600080fd5b505afa15801561135e573d6000803e3d6000fd5b505050506040513d602081101561137457600080fd5b5051156113b6576040805162461bcd60e51b815260206004820152600b60248201526a1413d3d317d313d0d2d15160aa1b604482015290519081900360640190fd5b6113be610e01565b60006113c8611de2565b905060006113d4611eaa565b60020154905060006113ff670de0b6b3a76400006105e9856006015489611e0690919063ffffffff16565b905060005b60028401548110156114cf57600084600201828154811061142157fe5b60009182526020822001546001600160a01b03169150611440826118dc565b90506000611455866105e96106f88d89611f28565b9050620f42406114658383611f28565b10156114b0576040805162461bcd60e51b8152602060048201526015602482015274544f4b454e5f42414c414e43455f544f4f5f4c4f5760581b604482015290519081900360640190fd5b6114c46001600160a01b0384163383612109565b505050600101611404565b5080158015906114e25750600783015415155b80156114fa5750600a8301546001600160a01b031615155b15611546576000611524670de0b6b3a76400006105e9866007015485611e0690919063ffffffff16565b9050801561154457600a840154611544906001600160a01b031682611fee565b505b620f42406115548388611f28565b10156115a7576040805162461bcd60e51b815260206004820152601a60248201527f504f4f4c5f544f4b454e5f42414c414e43455f544f4f5f4c4f57000000000000604482015290519081900360640190fd5b6115b1338761215b565b60408051878152905133917fbc865856a1e9f1dfe2abde98edc2eefe87b6c391a47032388ef36d8c2474aad3919081900360200190a25050825482149050610ace5760405162461bcd60e51b81526004018080602001828103825260328152602001806125b86032913960400191505060405180910390fd5b6116326120e5565b600401546001600160a01b031633148061164b57503330145b61168a576040805162461bcd60e51b815260206004820152600b60248201526a1393d517d0531313d5d15160aa1b604482015290519081900360640190fd5b80611693611de2565b556040805182815290517fc96ac8f962bbb0ee952304839108c72982a49173fa73e62ede62c943e10f57429181900360200190a150565b6116d26120e5565b600401546001600160a01b03163314806116eb57503330145b61172a576040805162461bcd60e51b815260206004820152600b60248201526a1393d517d0531313d5d15160aa1b604482015290519081900360640190fd5b6000611734611de2565b6001600160a01b038316600090815260038201602052604090205490915060ff161561179f576040805162461bcd60e51b81526020600482015260156024820152741513d2d15397d053149150511657d25397d413d3d3605a1b604482015290519081900360640190fd5b6002810154601e116117ee576040805162461bcd60e51b81526020600482015260136024820152721513d2d15397d31253525517d4915050d21151606a1b604482015290519081900360640190fd5b620f42406117fb836118dc565b1015611842576040805162461bcd60e51b8152602060048201526011602482015270109053105390d157d513d3d7d4d3505313607a1b604482015290519081900360640190fd5b6001600160a01b03821660008181526003830160209081526040808320805460ff191660019081179091556002860180549182018155845291832090910180546001600160a01b03191684179055517f784c8f4dbf0ffedd6e72c76501c545a70f8b203b30a26ce542bf92ba87c248a49190a25050565b60006118c3611de2565b600a01546001600160a01b0316905090565b620f424081565b6000816001600160a01b03166370a08231306040518263ffffffff1660e01b815260040180826001600160a01b0316815260200191505060206040518083038186803b15801561192b57600080fd5b505afa15801561193f573d6000803e3d6000fd5b505050506040513d602081101561195557600080fd5b505192915050565b6000611967611de2565b60040154905090565b6119786120e5565b600401546001600160a01b031633148061199157503330145b6119d0576040805162461bcd60e51b815260206004820152600b60248201526a1393d517d0531313d5d15160aa1b604482015290519081900360640190fd5b67016345785d8a0000811115611a1b576040805162461bcd60e51b815260206004820152600b60248201526a4645455f544f4f5f42494760a81b604482015290519081900360640190fd5b80611a24611de2565b600601556040805182815290517fb087f15d44c22304a275c2b80bad7d5ccfd7059fa7678aa84549b55f614a158c9181900360200190a150565b611a666120e5565b600401546001600160a01b0316331480611a7f57503330145b611abe576040805162461bcd60e51b815260206004820152600b60248201526a1393d517d0531313d5d15160aa1b604482015290519081900360640190fd5b67016345785d8a0000811115611b09576040805162461bcd60e51b815260206004820152600b60248201526a4645455f544f4f5f42494760a81b604482015290519081900360640190fd5b80611b12611de2565b600401556040805182815290517f565a4bfd76b3419546eefb0f3228d436837362a9b57e0c3a03227225dfec023d9181900360200190a150565b600080611b57611de2565b90506000611b63611eaa565b600201546009830154600884015491925090801580611b8d5750600a8401546001600160a01b0316155b80611b96575081155b15611ba8576000945050505050610ae4565b6000611bb44284611f28565b9050611bd66301e133806105e983610968670de0b6b3a7640000838a89611e06565b9550505050505090565b6000611bea611de2565b60060154905090565b611bfb6120e5565b600401546001600160a01b0316331480611c1457503330145b611c53576040805162461bcd60e51b815260206004820152600b60248201526a1393d517d0531313d5d15160aa1b604482015290519081900360640190fd5b611c5b610e01565b67016345785d8a0000811115611ca6576040805162461bcd60e51b815260206004820152600b60248201526a4645455f544f4f5f42494760a81b604482015290519081900360640190fd5b80611caf611de2565b600801556040805182815290517fb28ff79de60b96320a73afead226d63eff6efb0af3c1ce70c7e2e5489419e1139181900360200190a150565b601e81565b611cf66120e5565b600401546001600160a01b0316331480611d0f57503330145b611d4e576040805162461bcd60e51b815260206004820152600b60248201526a1393d517d0531313d5d15160aa1b604482015290519081900360640190fd5b670de0b6b3a7640000811115611d9f576040805162461bcd60e51b81526020600482015260116024820152704645455f53484152455f544f4f5f42494760781b604482015290519081900360640190fd5b80611da8611de2565b600701556040805182815290517f5dfdebaeccd5926e0513268bf319e64f404ccc739f1344dbd895cd6a1c4ede8c9181900360200190a150565b7f1cdb335291b9ba9e18468a78cd32d3a9c32fd7cc42984115c04be356ede766ac90565b600082611e1557506000611e62565b82820282848281611e2257fe5b0414611e5f5760405162461bcd60e51b815260040180806020018281038252602181526020018061256d6021913960400191505060405180910390fd5b90505b92915050565b6000611e5f83836040518060400160405280601a81526020017f536166654d6174683a206469766973696f6e206279207a65726f000000000000815250612202565b7f41d2dff3392a31ed3dbbccd2b0d803b57f5635d0ccd048fd68edf9f4d37c1b9f90565b600082820183811015611e5f576040805162461bcd60e51b815260206004820152601b60248201527f536166654d6174683a206164646974696f6e206f766572666c6f770000000000604482015290519081900360640190fd5b6000611e5f83836040518060400160405280601e81526020017f536166654d6174683a207375627472616374696f6e206f766572666c6f7700008152506122a4565b7ffad169404002d10c88c6f4c5df96a5ae8d3cada85765079fe73839a09bf6887c90565b604080516001600160a01b0380861660248301528416604482015260648082018490528251808303909101815260849091019091526020810180516001600160e01b03166323b872dd60e01b179052611fe89085906122fe565b50505050565b6001600160a01b03821661203e576040805162461bcd60e51b8152602060048201526012602482015271494e56414c49445f544f5f4144445245535360701b604482015290519081900360640190fd5b6000612048611eaa565b6001600160a01b03841660009081526003820160205260409020549091506120709083611ece565b6001600160a01b0384166000908152600383016020526040902055600281015461209a9083611ece565b60028201556040805183815290516001600160a01b038516916000917fddf252ad1be2c89b69c2b068fc378daa952ba7f163c4a11628f55a4df523b3ef9181900360200190a3505050565b7fc8fcad8db84d3cc18b4c41d551ea0ee66dd599cde068d998e57d5e09332c131c90565b604080516001600160a01b038416602482015260448082018490528251808303909101815260649091019091526020810180516001600160e01b031663a9059cbb60e01b179052610ace9084906122fe565b6000612165611eaa565b6001600160a01b038416600090815260038201602052604090205490915061218d9083611f28565b6001600160a01b038416600090815260038301602052604090205560028101546121b79083611f28565b60028201556040805183815290516000916001600160a01b038616917fddf252ad1be2c89b69c2b068fc378daa952ba7f163c4a11628f55a4df523b3ef9181900360200190a3505050565b6000818361228e5760405162461bcd60e51b81526004018080602001828103825283818151815260200191508051906020019080838360005b8381101561225357818101518382015260200161223b565b50505050905090810190601f1680156122805780820380516001836020036101000a031916815260200191505b509250505060405180910390fd5b50600083858161229a57fe5b0495945050505050565b600081848411156122f65760405162461bcd60e51b815260206004820181815283516024840152835190928392604490910191908501908083836000831561225357818101518382015260200161223b565b505050900390565b6060612353826040518060400160405280602081526020017f5361666545524332303a206c6f772d6c6576656c2063616c6c206661696c6564815250856001600160a01b03166123af9092919063ffffffff16565b805190915015610ace5780806020019051602081101561237257600080fd5b5051610ace5760405162461bcd60e51b815260040180806020018281038252602a81526020018061258e602a913960400191505060405180910390fd5b60606123be84846000856123c6565b949350505050565b60606123d185612533565b612422576040805162461bcd60e51b815260206004820152601d60248201527f416464726573733a2063616c6c20746f206e6f6e2d636f6e7472616374000000604482015290519081900360640190fd5b60006060866001600160a01b031685876040518082805190602001908083835b602083106124615780518252601f199092019160209182019101612442565b6001836020036101000a03801982511681845116808217855250505050505090500191505060006040518083038185875af1925050503d80600081146124c3576040519150601f19603f3d011682016040523d82523d6000602084013e6124c8565b606091505b509150915081156124dc5791506123be9050565b8051156124ec5780518082602001fd5b60405162461bcd60e51b815260206004820181815286516024840152865187939192839260440191908501908083836000831561225357818101518382015260200161223b565b6000813f7fc5d2460186f7233c927e7db2dcc703c0e500b653ca82273b7bfad8045d85a4708181148015906123be57505015159291505056fe536166654d6174683a206d756c7469706c69636174696f6e206f766572666c6f775361666545524332303a204552433230206f7065726174696f6e20646964206e6f7420737563636565645265656e74727950726f74656374696f6e46616365742e6e6f5265656e7472793a207265656e747279206465746563746564a264697066735822122036eb779fb9aab221730f9f6099f50e1f3769e2b5f4939996fee6795656844b1f64736f6c63430007010033",
    "linkReferences": {}
  }
}