{
  "abi": [
    {
      "inputs": [
        {
          "internalType": "address",
          "name": "_nest",
          "type": "address"
        },
        {
          "internalType": "address",
          "name": "_masterKontract",
          "type": "address"
        }
      ],
      "name": "encodeDataForKashiLending",
      "outputs": [
        {
          "internalType": "bytes",
          "name": "",
          "type": "bytes"
        }
      ],
      "stateMutability": "view",
      "type": "function"
    },
    {
      "inputs": [
        {
          "internalType": "address",
          "name": "_nest",
          "type": "address"
        },
        {
          "internalType": "uint256",
          "name": "_amount",
          "type": "uint256"
        }
      ],
      "name": "encodeUnLendLending",
      "outputs": [
        {
          "internalType": "bytes",
          "name": "",
          "type": "bytes"
        }
      ],
      "stateMutability": "view",
      "type": "function"
    }
  ],
  "bytecode": {
    "object": "0x608060405234801561001057600080fd5b50610250806100206000396000f3fe608060405234801561001057600080fd5b50600436106100365760003560e01c80635ed103211461003b57806361eb6e0914610064575b600080fd5b61004e610049366004610168565b610077565b60405161005b9190610192565b60405180910390f35b61004e6100723660046101e7565b610102565b604051732791bca1f2de4661ed88a30c99a7a9449aa8417460248201526001600160a01b0383166044820181905260648201526000608482015260a4810182905260609063097da6d360e41b9060c4015b60408051601f198184030181529190526020810180516001600160e01b03166001600160e01b031990931692909217909152905092915050565b6040516001600160a01b038084166024830152821660448201526001606482015260006084820181905260a4820181905260c482015260609063c0a47c9360e01b9060e4016100c8565b80356001600160a01b038116811461016357600080fd5b919050565b6000806040838503121561017b57600080fd5b6101848361014c565b946020939093013593505050565b600060208083528351808285015260005b818110156101bf578581018301518582016040015282016101a3565b818111156101d1576000604083870101525b50601f01601f1916929092016040019392505050565b600080604083850312156101fa57600080fd5b6102038361014c565b91506102116020840161014c565b9050925092905056fea2646970667358221220ae1587a67c51f0dd9bd21ae641c5bb8f53951d3e8f5c9db8f8081919efea981564736f6c634300080d0033",
    "linkReferences": {}
  }
}