{
  "abi": [
    {
      "inputs": [
        {
          "internalType": "address",
          "name": "_weth",
          "type": "address"
        },
        {
          "internalType": "address",
          "name": "_sushiRouter",
          "type": "address"
        },
        {
          "internalType": "address",
          "name": "_lendingRegistry",
          "type": "address"
        },
        {
          "internalType": "address",
          "name": "_pieRegistry",
          "type": "address"
        },
        {
          "internalType": "address",
          "name": "_bentoBox",
          "type": "address"
        },
        {
          "internalType": "address",
          "name": "_masterKontract",
          "type": "address"
        }
      ],
      "stateMutability": "nonpayable",
      "type": "constructor"
    },
    {
      "anonymous": false,
      "inputs": [
        {
          "indexed": true,
          "internalType": "address",
          "name": "_token",
          "type": "address"
        },
        {
          "indexed": true,
          "internalType": "address",
          "name": "_hop",
          "type": "address"
        }
      ],
      "name": "HopUpdated",
      "type": "event"
    },
    {
      "anonymous": false,
      "inputs": [
        {
          "indexed": true,
          "internalType": "address",
          "name": "previousOwner",
          "type": "address"
        },
        {
          "indexed": true,
          "internalType": "address",
          "name": "newOwner",
          "type": "address"
        }
      ],
      "name": "OwnershipTransferred",
      "type": "event"
    },
    {
      "inputs": [
        {
          "internalType": "address",
          "name": "_inputToken",
          "type": "address"
        },
        {
          "internalType": "address",
          "name": "_outputToken",
          "type": "address"
        },
        {
          "internalType": "uint256",
          "name": "_maxInput",
          "type": "uint256"
        },
        {
          "internalType": "bytes",
          "name": "_data",
          "type": "bytes"
        }
      ],
      "name": "bake",
      "outputs": [
        {
          "internalType": "uint256",
          "name": "inputAmountUsed",
          "type": "uint256"
        },
        {
          "internalType": "uint256",
          "name": "outputAmount",
          "type": "uint256"
        }
      ],
      "stateMutability": "nonpayable",
      "type": "function"
    },
    {
      "inputs": [],
      "name": "baoAddress",
      "outputs": [
        {
          "internalType": "address",
          "name": "",
          "type": "address"
        }
      ],
      "stateMutability": "view",
      "type": "function"
    },
    {
      "inputs": [],
      "name": "baoFee",
      "outputs": [
        {
          "internalType": "uint256",
          "name": "",
          "type": "uint256"
        }
      ],
      "stateMutability": "view",
      "type": "function"
    },
    {
      "inputs": [
        {
          "internalType": "address",
          "name": "",
          "type": "address"
        }
      ],
      "name": "customHops",
      "outputs": [
        {
          "internalType": "address",
          "name": "hop",
          "type": "address"
        }
      ],
      "stateMutability": "view",
      "type": "function"
    },
    {
      "inputs": [
        {
          "internalType": "uint256",
          "name": "_outputAmount",
          "type": "uint256"
        }
      ],
      "name": "encodeData",
      "outputs": [
        {
          "internalType": "bytes",
          "name": "",
          "type": "bytes"
        }
      ],
      "stateMutability": "pure",
      "type": "function"
    },
    {
      "inputs": [],
      "name": "feeRecipient",
      "outputs": [
        {
          "internalType": "address",
          "name": "",
          "type": "address"
        }
      ],
      "stateMutability": "view",
      "type": "function"
    },
    {
      "inputs": [
        {
          "internalType": "address",
          "name": "_inputToken",
          "type": "address"
        },
        {
          "internalType": "address",
          "name": "_outputToken",
          "type": "address"
        },
        {
          "internalType": "uint256",
          "name": "_outputAmount",
          "type": "uint256"
        }
      ],
      "name": "getPrice",
      "outputs": [
        {
          "internalType": "uint256",
          "name": "",
          "type": "uint256"
        }
      ],
      "stateMutability": "nonpayable",
      "type": "function"
    },
    {
      "inputs": [],
      "name": "owner",
      "outputs": [
        {
          "internalType": "address",
          "name": "",
          "type": "address"
        }
      ],
      "stateMutability": "view",
      "type": "function"
    },
    {
      "inputs": [],
      "name": "renounceOwnership",
      "outputs": [],
      "stateMutability": "nonpayable",
      "type": "function"
    },
    {
      "inputs": [
        {
          "internalType": "address payable",
          "name": "_to",
          "type": "address"
        },
        {
          "internalType": "uint256",
          "name": "_amount",
          "type": "uint256"
        }
      ],
      "name": "saveEth",
      "outputs": [],
      "stateMutability": "nonpayable",
      "type": "function"
    },
    {
      "inputs": [
        {
          "internalType": "address",
          "name": "_token",
          "type": "address"
        },
        {
          "internalType": "address",
          "name": "_to",
          "type": "address"
        },
        {
          "internalType": "uint256",
          "name": "_amount",
          "type": "uint256"
        }
      ],
      "name": "saveToken",
      "outputs": [],
      "stateMutability": "nonpayable",
      "type": "function"
    },
    {
      "inputs": [
        {
          "internalType": "uint256",
          "name": "_newFee",
          "type": "uint256"
        }
      ],
      "name": "setBaoFee",
      "outputs": [],
      "stateMutability": "nonpayable",
      "type": "function"
    },
    {
      "inputs": [
        {
          "internalType": "address",
          "name": "_token",
          "type": "address"
        },
        {
          "internalType": "address",
          "name": "_hop",
          "type": "address"
        }
      ],
      "name": "setCustomHop",
      "outputs": [],
      "stateMutability": "nonpayable",
      "type": "function"
    },
    {
      "inputs": [
        {
          "internalType": "address",
          "name": "_newFeeRecipient",
          "type": "address"
        }
      ],
      "name": "setFeeRecipient",
      "outputs": [],
      "stateMutability": "nonpayable",
      "type": "function"
    },
    {
      "inputs": [
        {
          "internalType": "address",
          "name": "_newFeeToken",
          "type": "address"
        }
      ],
      "name": "setFeeToken",
      "outputs": [],
      "stateMutability": "nonpayable",
      "type": "function"
    },
    {
      "inputs": [
        {
          "internalType": "address",
          "name": "newOwner",
          "type": "address"
        }
      ],
      "name": "transferOwnership",
      "outputs": [],
      "stateMutability": "nonpayable",
      "type": "function"
    }
  ],
  "bytecode": {
    "object": "0x6101006040526000600155600280546001600160a01b031990811673c81278a52ad0e1485b7c3cdf79079220ddd68b7d179091556003805490911661dead1790553480156200004d57600080fd5b506040516200348938038062003489833981016040819052620000709162000294565b620000846200007e62000223565b62000227565b6001600160a01b038616620000b65760405162461bcd60e51b8152600401620000ad906200041b565b60405180910390fd5b6001600160a01b038516620000df5760405162461bcd60e51b8152600401620000ad90620003f0565b6001600160a01b038416620001085760405162461bcd60e51b8152600401620000ad906200038e565b6001600160a01b038316620001315760405162461bcd60e51b8152600401620000ad90620003c5565b6001600160601b0319606087811b821660805286811b821660a05285811b821660c05284901b1660e0526040516001600160a01b0383169060009063c0a47c9360e01b9062000190903090869060019086908190819060240162000350565b60408051601f198184030181529181526020820180516001600160e01b03166001600160e01b0319909416939093179092529051620001d0919062000314565b60006040518083038185875af1925050503d80600081146200020f576040519150601f19603f3d011682016040523d82523d6000602084013e62000214565b606091505b5050505050505050506200043e565b3390565b600080546001600160a01b038381166001600160a01b0319831681178455604051919092169283917f8be0079c531659141344cd1fd0a4f28419497f9722a3daafe3b4186f6b6457e09190a35050565b80516001600160a01b03811681146200028f57600080fd5b919050565b60008060008060008060c08789031215620002ad578182fd5b620002b88762000277565b9550620002c86020880162000277565b9450620002d86040880162000277565b9350620002e86060880162000277565b9250620002f86080880162000277565b91506200030860a0880162000277565b90509295509295509295565b60008251815b818110156200033657602081860181015185830152016200031a565b81811115620003455782828501525b509190910192915050565b6001600160a01b039687168152949095166020850152911515604084015260ff9081166060840152908116608083015290911660a082015260c00190565b60208082526014908201527f4c454e44494e475f4d414e414745525f5a45524f000000000000000000000000604082015260600190565b6020808252601190820152705049455f52454749535452595f5a45524f60781b604082015260600190565b60208082526011908201527053555348495f524f555445525f5a45524f60781b604082015260600190565b602080825260099082015268574554485f5a45524f60b81b604082015260600190565b60805160601c60a05160601c60c05160601c60e05160601c612f336200055660003960008181610d9701526118e3015260008181610c19015281816114e101526119960152600081816104f7015281816105b901528181610679015281816107450152818161172901528181611e1101528181611eb301528181611f3c0152818161249f0152818161254101526125ca0152600081816104ca0152818161058c0152818161064401528181610e3101528181610e6e01528181610ea701528181610ee401528181610f2501528181610f5601528181611191015281816111ce0152818161126d0152818161167f0152818161180a0152818161184801528181611876015281816118a0015261208d0152612f336000f3fe608060405234801561001057600080fd5b50600436106101005760003560e01c80638da5cb5b11610097578063b056e83311610066578063b056e833146101fd578063c1a5c7f114610205578063e74b981b14610218578063f2fde38b1461022b57610100565b80638da5cb5b146101af5780639afdb2c2146101b7578063a7521a89146101ca578063a9dd14d6146101ea57610100565b806346904840116100d3578063469048401461016a57806349f2597d1461017f5780634ec8f6ae14610194578063715018a6146101a757610100565b80630dcc44d31461010557806315cce2241461011a57806327726e7d1461012d578063412c954714610140575b600080fd5b610118610113366004612a40565b61023e565b005b61011861012836600461270e565b6102a0565b61011861013b366004612746565b610301565b61015361014e3660046127e9565b6103a0565b604051610161929190612d40565b60405180910390f35b610172610a04565b6040516101619190612ae6565b610187610a13565b6040516101619190612b5a565b6101186101a2366004612771565b610a19565b610118610a94565b610172610adf565b6101186101c53660046127a9565b610aee565b6101dd6101d8366004612a40565b610bb3565b6040516101619190612b63565b6101876101f83660046127a9565b610bdc565b610172610fa1565b61017261021336600461270e565b610fb0565b61011861022636600461270e565b610fcb565b61011861023936600461270e565b61102c565b61024661109d565b6001600160a01b0316610257610adf565b6001600160a01b0316146102865760405162461bcd60e51b815260040161027d90612c02565b60405180910390fd5b670de0b6b3a764000081111561029b57600080fd5b600155565b6102a861109d565b6001600160a01b03166102b9610adf565b6001600160a01b0316146102df5760405162461bcd60e51b815260040161027d90612c02565b600280546001600160a01b0319166001600160a01b0392909216919091179055565b61030961109d565b6001600160a01b031661031a610adf565b6001600160a01b0316146103405760405162461bcd60e51b815260040161027d90612c02565b816001600160a01b03168160405161035790612ae3565b60006040518083038185875af1925050503d8060008114610394576040519150601f19603f3d011682016040523d82523d6000602084013e610399565b606091505b5050505050565b60008085856103c26103b061109d565b6001600160a01b0384169030896110a1565b6000858060200190518101906103d89190612a28565b90506103e6898989846110f9565b93506000836001600160a01b03166370a08231306040518263ffffffff1660e01b81526004016104169190612ae6565b60206040518083038186803b15801561042e57600080fd5b505afa158015610442573d6000803e3d6000fd5b505050506040513d601f19601f820116820180604052508101906104669190612a28565b90506000670de0b6b3a7640001600154838b6104829190612e5e565b61048c9190612e3f565b6104969190612e1f565b90506000821180156104a757508015155b156108d05760025460405163095ea7b360e01b81526001600160a01b03918216917f0000000000000000000000000000000000000000000000000000000000000000169063095ea7b390610522907f000000000000000000000000000000000000000000000000000000000000000090600090600401612b1e565b602060405180830381600087803b15801561053c57600080fd5b505af1158015610550573d6000803e3d6000fd5b505050506040513d601f19601f820116820180604052508101906105749190612a08565b5060405163095ea7b360e01b81526001600160a01b037f0000000000000000000000000000000000000000000000000000000000000000169063095ea7b3906105e5907f00000000000000000000000000000000000000000000000000000000000000009060001990600401612b1e565b602060405180830381600087803b1580156105ff57600080fd5b505af1158015610613573d6000803e3d6000fd5b505050506040513d601f19601f820116820180604052508101906106379190612a08565b50600254600090610673907f0000000000000000000000000000000000000000000000000000000000000000906001600160a01b03168361118d565b905060007f00000000000000000000000000000000000000000000000000000000000000006001600160a01b031663d06ca61f85846040518363ffffffff1660e01b81526004016106c5929190612d27565b60006040518083038186803b1580156106dd57600080fd5b505afa1580156106f1573d6000803e3d6000fd5b505050506040513d6000823e601f3d908101601f1916820160405261071991908101906129d5565b60018151811061073957634e487b7160e01b600052603260045260246000fd5b602002602001015190507f00000000000000000000000000000000000000000000000000000000000000006001600160a01b03166338ed1739858385304260016107839190612e07565b6040518663ffffffff1660e01b81526004016107a3959493929190612d4e565b600060405180830381600087803b1580156107bd57600080fd5b505af11580156107d1573d6000803e3d6000fd5b505050506040513d6000823e601f3d908101601f191682016040526107f991908101906129d5565b506040516370a0823160e01b81526001600160a01b038416906342966c689082906370a082319061082e903090600401612ae6565b60206040518083038186803b15801561084657600080fd5b505afa15801561085a573d6000803e3d6000fd5b505050506040513d601f19601f8201168201806040525081019061087e9190612a28565b6040518263ffffffff1660e01b815260040161089a9190612b5a565b600060405180830381600087803b1580156108b457600080fd5b505af11580156108c8573d6000803e3d6000fd5b505050505050505b81156109da57846001600160a01b031663a9059cbb6108ed61109d565b6040516370a0823160e01b81526001600160a01b038916906370a0823190610919903090600401612ae6565b60206040518083038186803b15801561093157600080fd5b505afa158015610945573d6000803e3d6000fd5b505050506040513d601f19601f820116820180604052508101906109699190612a28565b6040518363ffffffff1660e01b8152600401610986929190612b1e565b602060405180830381600087803b1580156109a057600080fd5b505af11580156109b4573d6000803e3d6000fd5b505050506040513d601f19601f820116820180604052508101906109d89190612a08565b505b6109f66109e561109d565b6001600160a01b0386169088611453565b505050505094509492505050565b6003546001600160a01b031681565b60015481565b610a2161109d565b6001600160a01b0316610a32610adf565b6001600160a01b031614610a585760405162461bcd60e51b815260040161027d90612c02565b60408051602080820183526001600160a01b039384168252938316600090815260049094529220915182546001600160a01b0319169116179055565b610a9c61109d565b6001600160a01b0316610aad610adf565b6001600160a01b031614610ad35760405162461bcd60e51b815260040161027d90612c02565b610add6000611477565b565b6000546001600160a01b031690565b610af661109d565b6001600160a01b0316610b07610adf565b6001600160a01b031614610b2d5760405162461bcd60e51b815260040161027d90612c02565b60405163a9059cbb60e01b81526001600160a01b0384169063a9059cbb90610b5b9085908590600401612b1e565b602060405180830381600087803b158015610b7557600080fd5b505af1158015610b89573d6000803e3d6000fd5b505050506040513d601f19601f82011682018060405250810190610bad9190612a08565b50505050565b606081604051602001610bc69190612b5a565b6040516020818303038152906040529050919050565b6000826001600160a01b0316846001600160a01b03161415610bff575080610f9a565b604051632aabce9960e11b81526000906001600160a01b037f000000000000000000000000000000000000000000000000000000000000000016906355579d3290610c4e908790600401612ae6565b60206040518083038186803b158015610c6657600080fd5b505afa158015610c7a573d6000803e3d6000fd5b505050506040513d601f19601f82011682018060405250810190610c9e919061272a565b90506001600160a01b03811615610d80576000610cba856114c7565b90506000816001600160a01b031663dc3b7c8b876040518263ffffffff1660e01b8152600401610cea9190612ae6565b602060405180830381600087803b158015610d0457600080fd5b505af1158015610d18573d6000803e3d6000fd5b505050506040513d601f19601f82011682018060405250810190610d3c9190612a28565b90506000670de0b6b3a7640000610d538388612e3f565b610d5d9190612e1f565b610d68906001612e07565b9050610d75888583610bdc565b945050505050610f9a565b60405163e4ec552b60e01b81526001600160a01b037f0000000000000000000000000000000000000000000000000000000000000000169063e4ec552b90610dcc908790600401612ae6565b60206040518083038186803b158015610de457600080fd5b505afa158015610df8573d6000803e3d6000fd5b505050506040513d601f19601f82011682018060405250810190610e1c9190612a08565b15610ea5576000610e2d85856115e0565b90507f00000000000000000000000000000000000000000000000000000000000000006001600160a01b0316866001600160a01b031614610e9c57610e93867f000000000000000000000000000000000000000000000000000000000000000083610bdc565b92505050610f9a565b9150610f9a9050565b7f00000000000000000000000000000000000000000000000000000000000000006001600160a01b0316856001600160a01b031614158015610f1957507f00000000000000000000000000000000000000000000000000000000000000006001600160a01b0316846001600160a01b031614155b15610f87576000610f4b7f0000000000000000000000000000000000000000000000000000000000000000868661171c565b5090506000610f7b877f00000000000000000000000000000000000000000000000000000000000000008461171c565b509350610f9a92505050565b6000610f9486868661171c565b50925050505b9392505050565b6002546001600160a01b031681565b6004602052600090815260409020546001600160a01b031681565b610fd361109d565b6001600160a01b0316610fe4610adf565b6001600160a01b03161461100a5760405162461bcd60e51b815260040161027d90612c02565b600380546001600160a01b0319166001600160a01b0392909216919091179055565b61103461109d565b6001600160a01b0316611045610adf565b6001600160a01b03161461106b5760405162461bcd60e51b815260040161027d90612c02565b6001600160a01b0381166110915760405162461bcd60e51b815260040161027d90612b76565b61109a81611477565b50565b3390565b610bad846323b872dd60e01b8585856040516024016110c293929190612afa565b60408051601f198184030181529190526020810180516001600160e01b03166001600160e01b03199093169290921790915261175a565b60006111068585846117e9565b6040516370a0823160e01b81526001600160a01b038516906370a0823190611132903090600401612ae6565b60206040518083038186803b15801561114a57600080fd5b505afa15801561115e573d6000803e3d6000fd5b505050506040513d601f19601f820116820180604052508101906111829190612a28565b90505b949350505050565b60607f00000000000000000000000000000000000000000000000000000000000000006001600160a01b0316846001600160a01b03161415801561120357507f00000000000000000000000000000000000000000000000000000000000000006001600160a01b0316836001600160a01b031614155b1561131457604080516003808252608082019092529060208201606080368337019050509050838160008151811061124b57634e487b7160e01b600052603260045260246000fd5b60200260200101906001600160a01b031690816001600160a01b0316815250507f0000000000000000000000000000000000000000000000000000000000000000816001815181106112ad57634e487b7160e01b600052603260045260246000fd5b60200260200101906001600160a01b031690816001600160a01b03168152505082816002815181106112ef57634e487b7160e01b600052603260045260246000fd5b60200260200101906001600160a01b031690816001600160a01b031681525050610f9a565b6001600160a01b038216156113a857604080516003808252608082019092529060208201606080368337019050509050838160008151811061136657634e487b7160e01b600052603260045260246000fd5b60200260200101906001600160a01b031690816001600160a01b03168152505081816001815181106112ad57634e487b7160e01b600052603260045260246000fd5b604080516002808252606082018352909160208301908036833701905050905083816000815181106113ea57634e487b7160e01b600052603260045260246000fd5b60200260200101906001600160a01b031690816001600160a01b031681525050828160018151811061142c57634e487b7160e01b600052603260045260246000fd5b60200260200101906001600160a01b031690816001600160a01b0316815250509392505050565b6114728363a9059cbb60e01b84846040516024016110c2929190612b1e565b505050565b600080546001600160a01b038381166001600160a01b0319831681178455604051919092169283917f8be0079c531659141344cd1fd0a4f28419497f9722a3daafe3b4186f6b6457e09190a35050565b604051632df6e47f60e21b81526000906001600160a01b037f0000000000000000000000000000000000000000000000000000000000000000169063f8b7f42290829063b7db91fc9061151e908790600401612ae6565b60206040518083038186803b15801561153657600080fd5b505afa15801561154a573d6000803e3d6000fd5b505050506040513d601f19601f8201168201806040525081019061156e9190612a28565b6040518263ffffffff1660e01b815260040161158a9190612b5a565b60206040518083038186803b1580156115a257600080fd5b505afa1580156115b6573d6000803e3d6000fd5b505050506040513d601f19601f820116820180604052508101906115da919061272a565b92915050565b604051630dc6eaf760e21b81526000908390829081906001600160a01b0384169063371babdc90611615908890600401612b5a565b60006040518083038186803b15801561162d57600080fd5b505afa158015611641573d6000803e3d6000fd5b505050506040513d6000823e601f3d908101601f191682016040526116699190810190612974565b915091506000805b8351811015611711576116f37f00000000000000000000000000000000000000000000000000000000000000008583815181106116be57634e487b7160e01b600052603260045260246000fd5b60200260200101518584815181106116e657634e487b7160e01b600052603260045260246000fd5b6020026020010151610bdc565b6116fd9083612e07565b91508061170981612ea1565b915050611671565b509695505050505050565b600080600061174d8686867f0000000000000000000000000000000000000000000000000000000000000000611c80565b9660019650945050505050565b60006117af826040518060400160405280602081526020017f5361666545524332303a206c6f772d6c6576656c2063616c6c206661696c6564815250856001600160a01b0316611d679092919063ffffffff16565b80519091501561147257808060200190518101906117cd9190612a08565b6114725760405162461bcd60e51b815260040161027d90612cb8565b816001600160a01b0316836001600160a01b0316141561180857611472565b7f00000000000000000000000000000000000000000000000000000000000000006001600160a01b0316836001600160a01b0316146118cc57600061186e7f00000000000000000000000000000000000000000000000000000000000000008484610bdc565b905061189b847f000000000000000000000000000000000000000000000000000000000000000083611d76565b6118c67f000000000000000000000000000000000000000000000000000000000000000084846117e9565b50611472565b60405163e4ec552b60e01b81526001600160a01b037f0000000000000000000000000000000000000000000000000000000000000000169063e4ec552b90611918908590600401612ae6565b60206040518083038186803b15801561193057600080fd5b505afa158015611944573d6000803e3d6000fd5b505050506040513d601f19601f820116820180604052508101906119689190612a08565b1561197c576119778282611ff1565b611472565b604051632aabce9960e11b81526000906001600160a01b037f000000000000000000000000000000000000000000000000000000000000000016906355579d32906119cb908690600401612ae6565b60206040518083038186803b1580156119e357600080fd5b505afa1580156119f7573d6000803e3d6000fd5b505050506040513d601f19601f82011682018060405250810190611a1b919061272a565b90506001600160a01b03811615611c75576000611a37846114c7565b90506000816001600160a01b031663dc3b7c8b866040518263ffffffff1660e01b8152600401611a679190612ae6565b602060405180830381600087803b158015611a8157600080fd5b505af1158015611a95573d6000803e3d6000fd5b505050506040513d601f19601f82011682018060405250810190611ab99190612a28565b90506000670de0b6b3a7640000611ad08387612e3f565b611ada9190612e1f565b611ae5906001612e07565b9050611af28785836117e9565b600080846001600160a01b0316637b1c44328785306040518463ffffffff1660e01b8152600401611b2593929190612b37565b60006040518083038186803b158015611b3d57600080fd5b505afa158015611b51573d6000803e3d6000fd5b505050506040513d6000823e601f3d908101601f19168201604052611b79919081019061288b565b9150915060005b8251811015611c69576000838281518110611bab57634e487b7160e01b600052603260045260246000fd5b60200260200101516001600160a01b03166000848481518110611bde57634e487b7160e01b600052603260045260246000fd5b6020026020010151604051611bf39190612ac7565b60006040518083038185875af1925050503d8060008114611c30576040519150601f19603f3d011682016040523d82523d6000602084013e611c35565b606091505b5050905080611c565760405162461bcd60e51b815260040161027d90612d02565b5080611c6181612ea1565b915050611b80565b50505050505050611472565b610bad848484611d76565b6000836001600160a01b0316856001600160a01b03161415611ca3575081611185565b816001600160a01b0316631f00ca7484611cbf8888600061118d565b6040518363ffffffff1660e01b8152600401611cdc929190612d27565b60006040518083038186803b158015611cf457600080fd5b505afa925050508015611d2957506040513d6000823e601f3d908101601f19168201604052611d2691908101906129d5565b60015b611d365750600019611185565b80600081518110611d5757634e487b7160e01b600052603260045260246000fd5b6020026020010151915050611185565b606061118584846000856123aa565b6001600160a01b038083166000818152600460209081526040918290208251918201909252905483168152859290919083161415611db5575050611472565b80516001600160a01b031615611ddc57611dd5858260000151868661246a565b5050611472565b6000611dea8686600061118d565b60405163095ea7b360e01b81529091506001600160a01b0384169063095ea7b390611e3c907f000000000000000000000000000000000000000000000000000000000000000090600090600401612b1e565b602060405180830381600087803b158015611e5657600080fd5b505af1158015611e6a573d6000803e3d6000fd5b505050506040513d601f19601f82011682018060405250810190611e8e9190612a08565b5060405163095ea7b360e01b81526001600160a01b0384169063095ea7b390611edf907f00000000000000000000000000000000000000000000000000000000000000009060001990600401612b1e565b602060405180830381600087803b158015611ef957600080fd5b505af1158015611f0d573d6000803e3d6000fd5b505050506040513d601f19601f82011682018060405250810190611f319190612a08565b506001600160a01b037f000000000000000000000000000000000000000000000000000000000000000016638803dbee856000198430611f72426001612e07565b6040518663ffffffff1660e01b8152600401611f92959493929190612d4e565b600060405180830381600087803b158015611fac57600080fd5b505af1158015611fc0573d6000803e3d6000fd5b505050506040513d6000823e601f3d908101601f19168201604052611fe891908101906129d5565b50505050505050565b604051630dc6eaf760e21b8152829060009081906001600160a01b0384169063371babdc90612024908790600401612b5a565b60006040518083038186803b15801561203c57600080fd5b505afa158015612050573d6000803e3d6000fd5b505050506040513d6000823e601f3d908101601f191682016040526120789190810190612974565b9150915060005b82518110156123445761210d7f00000000000000000000000000000000000000000000000000000000000000008483815181106120cc57634e487b7160e01b600052603260045260246000fd5b60200260200101518484815181106120f457634e487b7160e01b600052603260045260246000fd5b602002602001015160016121089190612e07565b6117e9565b600083828151811061212f57634e487b7160e01b600052603260045260246000fd5b60200260200101519050806001600160a01b031663095ea7b38860006040518363ffffffff1660e01b8152600401612168929190612b1e565b602060405180830381600087803b15801561218257600080fd5b505af1158015612196573d6000803e3d6000fd5b505050506040513d601f19601f820116820180604052508101906121ba9190612a08565b50806001600160a01b031663095ea7b3888585815181106121eb57634e487b7160e01b600052603260045260246000fd5b602002602001015160016121ff9190612e07565b6040518363ffffffff1660e01b815260040161221c929190612b1e565b602060405180830381600087803b15801561223657600080fd5b505af115801561224a573d6000803e3d6000fd5b505050506040513d601f19601f8201168201806040525081019061226e9190612a08565b506040516370a0823160e01b81526001600160a01b038216906370a082319061229b903090600401612ae6565b60206040518083038186803b1580156122b357600080fd5b505afa1580156122c7573d6000803e3d6000fd5b505050506040513d601f19601f820116820180604052508101906122eb9190612a28565b83838151811061230b57634e487b7160e01b600052603260045260246000fd5b602002602001015111156123315760405162461bcd60e51b815260040161027d90612c6e565b508061233c81612ea1565b91505061207f565b506040516334e7a19f60e01b81526001600160a01b038416906334e7a19f90612371908790600401612b5a565b600060405180830381600087803b15801561238b57600080fd5b505af115801561239f573d6000803e3d6000fd5b505050505050505050565b6060824710156123cc5760405162461bcd60e51b815260040161027d90612bbc565b6123d585612600565b6123f15760405162461bcd60e51b815260040161027d90612c37565b600080866001600160a01b0316858760405161240d9190612ac7565b60006040518083038185875af1925050503d806000811461244a576040519150601f19603f3d011682016040523d82523d6000602084013e61244f565b606091505b509150915061245f828286612606565b979650505050505050565b83600061247882858761118d565b60405163095ea7b360e01b81529091506001600160a01b0383169063095ea7b3906124ca907f000000000000000000000000000000000000000000000000000000000000000090600090600401612b1e565b602060405180830381600087803b1580156124e457600080fd5b505af11580156124f8573d6000803e3d6000fd5b505050506040513d601f19601f8201168201806040525081019061251c9190612a08565b5060405163095ea7b360e01b81526001600160a01b0383169063095ea7b39061256d907f00000000000000000000000000000000000000000000000000000000000000009060001990600401612b1e565b602060405180830381600087803b15801561258757600080fd5b505af115801561259b573d6000803e3d6000fd5b505050506040513d601f19601f820116820180604052508101906125bf9190612a08565b506001600160a01b037f000000000000000000000000000000000000000000000000000000000000000016638803dbee846000198430611f72426001612e07565b3b151590565b60608315612615575081610f9a565b8251156126255782518084602001fd5b8160405162461bcd60e51b815260040161027d9190612b63565b600082601f83011261264f578081fd5b8151602061266461265f83612dbb565b612d8a565b8281528181019085830183850287018401881015612680578586fd5b855b858110156126a757815161269581612ee8565b84529284019290840190600101612682565b5090979650505050505050565b600082601f8301126126c4578081fd5b815160206126d461265f83612dbb565b82815281810190858301838502870184018810156126f0578586fd5b855b858110156126a7578151845292840192908401906001016126f2565b60006020828403121561271f578081fd5b8135610f9a81612ee8565b60006020828403121561273b578081fd5b8151610f9a81612ee8565b60008060408385031215612758578081fd5b823561276381612ee8565b946020939093013593505050565b60008060408385031215612783578182fd5b823561278e81612ee8565b9150602083013561279e81612ee8565b809150509250929050565b6000806000606084860312156127bd578081fd5b83356127c881612ee8565b925060208401356127d881612ee8565b929592945050506040919091013590565b600080600080608085870312156127fe578081fd5b843561280981612ee8565b9350602085013561281981612ee8565b925060408501359150606085013567ffffffffffffffff81111561283b578182fd5b8501601f8101871361284b578182fd5b803561285961265f82612ddf565b81815288602083850101111561286d578384fd5b81602084016020830137908101602001929092525092959194509250565b600080604080848603121561289e578283fd5b835167ffffffffffffffff808211156128b5578485fd5b6128c18783880161263f565b94506020915081860151818111156128d7578485fd5b86019050601f810187136128e9578384fd5b80516128f761265f82612dbb565b81815283810190838501875b8481101561296357815186018c603f82011261291d57898afd5b8781015161292d61265f82612ddf565b8181528e8b838501011115612940578b8cfd5b61294f828b83018d8601612e75565b865250509286019290860190600101612903565b50979a909950975050505050505050565b60008060408385031215612986578182fd5b825167ffffffffffffffff8082111561299d578384fd5b6129a98683870161263f565b935060208501519150808211156129be578283fd5b506129cb858286016126b4565b9150509250929050565b6000602082840312156129e6578081fd5b815167ffffffffffffffff8111156129fc578182fd5b611185848285016126b4565b600060208284031215612a19578081fd5b81518015158114610f9a578182fd5b600060208284031215612a39578081fd5b5051919050565b600060208284031215612a51578081fd5b5035919050565b6000815180845260208085019450808401835b83811015612a905781516001600160a01b031687529582019590820190600101612a6b565b509495945050505050565b60008151808452612ab3816020860160208601612e75565b601f01601f19169290920160200192915050565b60008251612ad9818460208701612e75565b9190910192915050565b90565b6001600160a01b0391909116815260200190565b6001600160a01b039384168152919092166020820152604081019190915260600190565b6001600160a01b03929092168252602082015260400190565b6001600160a01b0393841681526020810192909252909116604082015260600190565b90815260200190565b600060208252610f9a6020830184612a9b565b60208082526026908201527f4f776e61626c653a206e6577206f776e657220697320746865207a65726f206160408201526564647265737360d01b606082015260800190565b60208082526026908201527f416464726573733a20696e73756666696369656e742062616c616e636520666f6040820152651c8818d85b1b60d21b606082015260800190565b6020808252818101527f4f776e61626c653a2063616c6c6572206973206e6f7420746865206f776e6572604082015260600190565b6020808252601d908201527f416464726573733a2063616c6c20746f206e6f6e2d636f6e7472616374000000604082015260600190565b6020808252602a908201527f57652061726520747279696e6720746f206465706f736974206d6f7265207468604082015269656e207765206861766560b01b606082015260800190565b6020808252602a908201527f5361666545524332303a204552433230206f7065726174696f6e20646964206e6040820152691bdd081cdd58d8d9595960b21b606082015260800190565b6020808252600b908201526a10d0531317d1905253115160aa1b604082015260600190565b6000838252604060208301526111856040830184612a58565b918252602082015260400190565b600086825285602083015260a06040830152612d6d60a0830186612a58565b6001600160a01b0394909416606083015250608001529392505050565b604051601f8201601f1916810167ffffffffffffffff81118282101715612db357612db3612ed2565b604052919050565b600067ffffffffffffffff821115612dd557612dd5612ed2565b5060209081020190565b600067ffffffffffffffff821115612df957612df9612ed2565b50601f01601f191660200190565b60008219821115612e1a57612e1a612ebc565b500190565b600082612e3a57634e487b7160e01b81526012600452602481fd5b500490565b6000816000190483118215151615612e5957612e59612ebc565b500290565b600082821015612e7057612e70612ebc565b500390565b60005b83811015612e90578181015183820152602001612e78565b83811115610bad5750506000910152565b6000600019821415612eb557612eb5612ebc565b5060010190565b634e487b7160e01b600052601160045260246000fd5b634e487b7160e01b600052604160045260246000fd5b6001600160a01b038116811461109a57600080fdfea2646970667358221220931871feb323ce061e891032c700b7c039b53113d6b478cb751ba12d1dbd23c364736f6c63430008010033",
    "linkReferences": {}
  }
}